:020000041000EA
:4000000000400208310100100D000000950100100000000000000000000000000000000000000000000000000000000091010010000000000000000091010010910100109B
:4000400091010010D9040010910100109101001091010010910100109101001091010010910100109101001091010010910100109101001091010010910100109101001015
:400080009101001091010010910100109101001091010010910100109101001091010010910100109101001091010010910100109101001091010010910100109101001020
:4000C00010B5064C2378002B07D1054B002B02D0044800E000BF0123237010BD4C0400080000000060240010084B10B5002B03D00749084800E000BF07480368002B00D198
:4001000010BD064B002BFBD09847F9E7000000005004000860240010E8000008000000007047EFF3108072B6704780F310887047FFF7F6FF72B6104C104DAC4209DA21681C
:400140006268A368043B02DBC858D050FAE70C34F3E70B490B4A0020521A02DD043A8850FCDC094809490860BFF34F8F00F01AF900F01EF8FEE70000642400107C24001080
:400180004C040008800600080000000808ED00E0FEE7FEE700B504207146084202D0EFF3098001E0EFF30880043001F0A7FCFEE710B582B062B6104800F068F900F02AFBD6
:4001C0000E4C0021200001F093FA0021200001F0EDFA01F0B7FE0190019801F091FE02B20021200001F03CFB01F0ACFE0090642001F030FCFEE7C0460000081000001D4133
:4002000070B55F49E0239B00CB580F2213401A00D0329200525807210A4002D0042A02D00FE0584811E01A00C0329200544952581F210A40112A06D0132A04D0FA20C00124
:4002400003E0514801E080200002002B36D14C4BB222D2009A5801211140B125ED005A59120F032422405B591B0F1C4207D0444C63591B0F03242340012B02D102E0012373
:4002800000E00023002B01D0002901D1032A4BD13B4BB022D2009D58AD03AD0B3B495958C904C90C9C58240E01231C40013401F0B1FC6843210001F0ADFC35E0012B33D179
:4002C0002F4BC822D2009A5801251540C024E4001A59120F03210A401B591B0F194207D027490B591B0F03210B40012B02D102E0012300E00023002B01D0002D01D1032A24
:4003000012D11F4DC022D200AB587F210B40A958090A1F263140AC58240C3440584301F079FC210001F076FCE0239B00144AD3581B0903221340D840154C2060154B1D6933
:400340002D0AFC32154001351969090E013101F061FC6060290001F05DFC0500A060E0600D4BC0180D4901F055FC20740C4BE818FA21890001F04EFC6061C003A06170BDB8
:400380000000264000127A0000366E0184050000C0000008000021403F420F0040420F00E703000010B5234BB021C9005A58520052085A50E02080001A583024A2431A507F
:4003C000802252045A501C491C4A9950A021890104329950FF211A4A995081315A58920092088020C00502435A505A588020000602435A505A58012082435A5000F078F902
:40040000FFF7FEFE00F070F800F078F800F0ACFFB0235B055B78002B04D0B0235B055B78DBB200E02123212B03D1064B0022DA605A6010BD00002640010002008405000075
:400440008C050000E00023408023024AD3580320184070470000214010B5FFF762FE084980228C58074B2340074C23438B508823034AD358DB06FAD5FFF757FE10BDC046CF
:4004800000002140FCFF00000100FA0570B50500FFF747FE0400FFF7D7FF032801D1FFF7DBFF0A4AB0239B00D55080215058084B03400848034353508823044AD358DB06DA
:4004C000FAD52000FFF731FE70BDC04600002140FCFF00000300FA0510B5024800F016FD10BDC0466804000810B5034A60328021042000F0FBFA10BD6805000810B501F0B8
:4005000068FB0400044800F0B1FB044800F018FC200001F062FB10BD6804000860200010FEE7C04680231B06074A13608321074A1160074A136080221203064B1A60064A6E
:40054000064B1A607047C046000010418800104100001D4100031D4101001180000E1F4130B587B0514BA021C9005A58032082435A504F4990240A594E4802400A510A692F
:400580001202120A8024640422430A610A6910400861E022920099580F20814399509958213081439950995880200006014399500021012000F00CFD0021022000F008FD7C
:4005C0000021032000F004FD0021042000F000FD0021002000F0FCFC01A8374903000A0032CA32C312CA12C300F01AFD002802D00420FFF795FF2D49304A8B58802000066B
:4006000003438B502E4800F0C5FD002802D00420FFF786FF254C2B4BE1582B4A0A40E250E1582A4A0A40E250E25880252D062A43E250043BE158264A0A40E250E158254AE1
:400640000A40802189010A43E250E258802109020A43E250204A1168204B0B40802149000B431360002001F0BBFA1D4BE2581543E550E158012291430A43E2506421002094
:4006800001F054FA174B0021174A9950802109015858084A0240C420800102435A508022D200124999509B5807B030BD0000264000002140FF00FFFF94200010087F00008D
:4006C000400D030004050000FEFCFFFFFFFF00FFFFF0FFFFFF8FFFFF00002740FFFCFFFF0C05000000000140E40C000000FF008030B58BB09621002001F018FA01F0EEF940
:40070000002801D101F0DAF9012001F03FF91A4A516C1A4B0B40E82189010B435364536C1B0AFF2213403A2B07D1134A516C144B0B40E82189010B435364FFF711FF01ACA4
:400740002200104B143323CB23C223CB23C223CB23C221000C4800F011FE24220021200001F056FC202301932100084800F006FEFFF7D8FE0BB030BD00002740FF00FFFFEA
:40078000FFC5FFDF94200010000332408004324070B505008021C9058023DB000F4AD1500369FF2B09D810008021090154580C4A22401B061B0C13434350084A8023DB0040
:4007C0000849D150D358084C0021200000F03EFFA968200000F02CFE70BDC04600000140FF00FFFF00FF008000001D4110B5074B1B79002B09D1054B5B79002B05D1012209
:40080000024B5A710248FFF7C3FF10BDF8050008CC20001010B5074B1B79DB0706D4FFF7E5FF044A117901230B431371024800F04DFF10BDF805000800001D4110B58308BB
:400840009A00801AC000FF228240D44381400A40072B32D89B001949CB589F46184B196A0C4022431A6228E0154B596A0C4022435A6222E0124B996A0C4022439A621CE088
:400880000F4BD96A0C402243DA6216E00C4B196B0C4022431A6310E0094B596B0C4022435A630AE0064B996B0C4022439A6304E0034BD96B0C402243DA6310BD5821001092
:4008C0000000214083089A00801AC100FF228A40072B2BD89B001748C3589F46164B186A1040C84023E0144B586A1040C8401EE0114B986A1040C84019E00F4BD86A1040AD
:40090000C84014E00C4B186B1040C8400FE00A4B586B1040C8400AE0074B986B1040C84005E0054BD86B1040C84000E00020C0B27047C046782100100000214070B5040061
:400940000D000B4B9A680B4B9A420BD1002903D1FC21094801F0A4F81034064BA400E058E55003E01034A400044BE05870BDC04600ED00E000000008982100100000001033
:40098000F0B583B0041E019150D04368032B03D93621294801F084F80023E05E002802DBA178FFF74BFF0023E25E6368002A12DB9008224EC0308000875903210A40D20005
:4009C000FF25290091408F4399012B000B4093403B43835117E092B20F21114008398908063189001648844661444E6803200240D200FF2738009040864398013B000340BC
:400A0000934033434B600E4B9A680E4B9A420FD1019B002B03D14521074801F041F80023E05E0199FFF78AFF002002E0064800E0002003B0F0BDC0469821001000E100E01E
:400A400000ED00E0000000080100560070B504000D000369002B0ADA0B0C03D00549064801F01EF82D042D0C6560002000E0034870BDC046A7020000DC21001001008A001E
:400A800070B505000C000368002B01DA002300E0084B002B0BD1EA60230C03D00649074800F0FEFF2404240CAC60002000E0014870BDC04601008A008E020000DC21001053
:400AC00070B505000C1E03D19921064800F0E8FF2B69002B03DAEB682360002000E0024870BDC0461C22001001008A00F8B504000E0015000F283FD8002A10D100290ED1F2
:400B00000F2804D99E21FF31214800F0C9FF6401204B9C466444204B1C60002037E0002D2CD0002E2CD0F3062CD10F2C04D99E21FF31174800F0B4FF6401164B9C46644477
:400B4000154F3C607E60BD60F2080021280001F05FFA00212000FFF779FF3A0001CA0021FFF78EFF00280FD10B4B18680021FFF76DFF00280AD10AE0084808E0074806E0DA
:400B8000064804E0054802E0054800E00448F8BD5C220010000023400006000803018A0001018A00F0B583B00D001C4B1B68DC68236883422DD947097B01C01A0123834097
:400BC0001E00002903D101F004F8019001E000230193124B18680368002B01DA002300E00F4B002B0ED16368BF00DF193B68334203D0B3433B60002400E00A4C0021FFF7A0
:400C000025FF00E0084C002D04D1019800F0E5FF00E0064C200003B0F0BDC0460006000801008A00020188000301880004018A000A4B1B68DA68136883420BD94309590112
:400C4000401A0121814052689B009B580B4203D0034802E0034800E003487047000600080101880004018A0000018800034B1B68002B01D1014B18607047C0460C0600085C
:400C8000F0B5474680B404000F0090461E00072803D9B421254800F003FF254B1B682C2060431C18FF22150035402560330A13406360330CA3600F2D04D99E21FF311D4840
:400CC00000F0EEFE6B011C4A94466344236165680F2D04D9DC214900164800F0E1FE6D01164B9C4665446561A668330C04D0EB214900104800F0D4FE330C04D0D821FF31FC
:400D00000C4800F0CDFE3604330C1E43AE604346E36127620023A361069B002B02D000229B5EA38104BC9046F0BDC0469C2200100C0600085C2200100000234000102340CD
:400D4000F0B58FB0041E03D150212E4800F0A8FE6368032B03D952212A4800F0A1FEE36A002B03D15621274800F09AFEE368072B03D95721234800F093FE236A072B03D9C1
:400D80005821204800F08CFE236B002B03D159211C4800F085FE07AA1300210061C961C321C921C302AD290023001433C1CBC1C141CB41C10821535E0CAE3380079B193366
:400DC000B370089B0D930B9B0A980096A26AE16AFFF756FF2B69E868002200920021FFF74FFF216B3000FFF7CBFD0023F25E002A05DB1F231A401E3B9340034A13600FB0D2
:400E0000F0BDC0469C22001000E100E0F8B505000F0016001C00002A03D1FC21244800F03FFE072D03D9FD21214800F039FE072F03D9FE211E4800F033FE1E4B1B682C211A
:400E400028004843181879435918012213004D68AB401B044568AA4015000269002A20D08F69002F1FD11268002A01DA002200E0114A002A19D132681204120C134333607E
:400E80000369DE6001238B614C6204692B0C03D00A490B4800F004FE2A04120CA260002004E0084802E0084800E00748F8BDC0469C2200100C06000801008A008E020000FA
:400EC0005C22001004028A0007028A0070B505000C001600072804D96021FF31084800F0DFFD084B1B682C2068431818C369B34204D9036AB6009C51002000E0024870BD9A
:400F00009C2200100C0600080A028A0070B582B0040000230193002804D1D92149002B4800F0BEFD2369002B04D1B421FF31274800F0B6FD6369002B04D1DA2149002348A5
:400F400000F0AEFD236A002B04D1B621FF311F4800F0A6FD6269D5682B0C1FD01B041360136820690369002B18DA01A9FFF7A8FD00280ED1019803681E0CFF221340E269C2
:400F8000934207D29B00226AD358002B02D0984700E0002631002069FFF758FD2D042D0C0FD063691D601B68636A002B03D098470023636203E0A36A002B00D098470023B6
:400FC000A36163691B6802B070BDC0469C22001004281DD8042904D94B1EFF3B9BB2132B18D8FF290CD91F2319400B4A0300C0339B009950D03080000423835000200AE0A7
:4010000007231940D0308000034BC150002002E0024800E0014870470000264001004A0070B5041E04D1EF2149004C4800F038FDB023DB004A4AD358002B01DB002500E0CA
:40104000484D002D00D086E0474B22689A4204D9EE21FF31414800F023FD23689B03990BE3791B068022520413400B43B022D2003B498B50A2883D4B9A4204D9FA21490016
:40108000364800F00DFD2289394B9A4204D9F621FF31324800F004FDA388DB04D90C23891B04344A13400B43334A2D498B50A37A0F2B04D9FC21FF31284800F0F1FCE37A4C
:4010C0000F2B04D9FE214900244800F0E9FCA289264B9A4204D9FE21FF31204800F0E0FCA37A0F211940E27A1201FF2313400B43A289120221490A401343A27B1207C02120
:4011000089050A401343B122D20015498B50A379072B03D91A49114800F0C2FC228A144B9A4203D917490D4800F0BAFC0C4816494658164B1E40A3791B02E022D200134081
:40114000334343504658124B1E40238A1B04094A134033434350280070BDC046DC2200100000264003004A00FFFF0300FF1F0000FF0100000000FF018405000000FF1F00B0
:4011800005020000060200008C050000FFF8FFFFFFFF00FE70B505002D492E4A8B588020000603438B502C0003E0012000F06CFC013CB223DB00264AD3585B0701D4002C69
:4011C000F3D12349B122D2008858234B03408020800503438B50002D02D00ED0002C0CD01B49B022D2008B588020000603438B5003E0012000F048FC013CB223DB00144A29
:40120000D358DB0701D4002CF3D1002D0ED0002C0CD10F4AB021C90053585B005B0853500C4953585B005B0853500BE0084B0221B222D2009950B121C9005A58C0208005C6
:4012400002435A50002C01D1044800E0002070BD000026408C050000FFFFFFCF02004A00214B984230D00ED8402831D004D800281FD010282AD031E080282BD080235B008D
:40128000984229D02AE0194B984229D007D8A0231B0698420DD0164B984212D01EE0154B98420AD0144B984209D0144B984215D101E0002016E0124814E0124812E0124855
:4012C00010E0A020C0030DE007480BE00F4809E00F4807E00F4805E0034803E00E4801E0A420C0037047C04606005200010000F0090000A0040000F0050000F0030000F023
:40130000010052000200520003005200010050000200500005005200FF00520010B50C4B1B69002B11DB0B4B1868FFF799FF0121094B0A4AD150084B084AD358002BFAD19A
:40134000074BD358002BF6D100E0064810BDC04600002340100600080C040000000025408C0400000200500010B5022202490020FFF7ACFD10BDC0463101000870B50500FB
:401380000C00002848D0002948D0FF230A689A4303D08D21224800F083FBFF2322699A4303D08E211E4800F07BFBA3685B0D03D08F211B4800F074FB63685B0A03D0902192
:4013C000174800F06DFBE3695B0F03D09121144800F066FB236A5B0F03D09221104800F05FFB104BEB18DB090F4A944663441B0122682A60E268AA622269EA6262692A635E
:40140000A2686A626268AA61A2696A63E2691A60226A5A60002002E0044800E0034870BD642300100000CEBF0010030401005A00F8B54F464646C0B407000E00002803D18F
:401440003721744800F02CFB002E03D13821714800F026FB002F00D1D4E0002E00D1D3E06D4B32681A4203D047216A4800F018FB6A4B72681A4203D04821664800F010FB48
:40148000674BB2681A4203D04921624800F008FB634BF2681A4203D04A215E4800F000FB337D032B03D94B215A4800F0F9FA5D4BB2699A4203D94C21564800F0F1FAF36D8B
:4014C000072B03D94D21534800F0EAFA554B326E9A4203D94E214F4800F0E2FA514B726E9A4203D94F214B4800F0DAFA73687B60B3683B61F3687B613369BB61337D9B078E
:40150000FB61B3693B62E0231B0132681A409046042372681A409146002433E02500A31D9B00F3185A68404B1A4203D05F21394800F0B6FAAB1D9B00F3182A002032920020
:401540005968D1515A68394B1A420BD1E0231B01984507D14B46002B04D06B003449354A995203E06B000021324A9952716F324BC818490000F0D8FB00B2AD002F4BE85024
:401580000134E4B20F2CC9D986239B00F26DFA501033326EFA501033726EFA50C93BFF3BF35C002B19D0264BB26E9A4203D97B21184800F075FA234BF26E1A4203D07C211D
:4015C000144800F06DFA1E4AC1239B00FA50043BB26EFA504433F26EFA50F0231B01FB583F2B04D0F0231B01FB58002B03D10B22F0231B01FA5033688022920313433B6093
:40160000002002E0104800E00F480CBC90469946F8BDC046E42300100811DF0001FE302000FC00FCFFFF000088CA887E0001000100F8FFFF2006000800007102400600084E
:40164000FFFFFF3F00FF30FF0100060070B505000C00002803D1AD21184800F021FA002D28D000232B606B60154A2A616A61AB61EB612B6206E01A002032920000215151AF
:401680000133DBB20F2BF6D9002386229200AB501032AB501032AB50002C0DD0094AC1239B00EA500023D0229200AB500432AB50002002E0044800E0002070BDE423001014
:4016C00003000300FFFFFF3F0100060010B50368002B0CDBA8239B00C358002BFADB03688022120613430360022000F0CDF910BD70B505000C00012904D96621FF31074818
:4017000000F0CEF9012C05D16B688022520213436B6001E001236B6270BDC046E423001070B505000C000F2903D90949094800F0B7F90F2C07D82034A4006259064B1A42E2
:4017400003D0002002E0002000E0012070BDC04643020000E42300100001000170B505000C000F2903D90F490F4800F099F90F2C12D821002800FFF7D3FF01235840C0B203
:40178000002804D06B681B0708D4002009E06B685B0705D4002004E0002002E0012000E0012070BD12020000E423001070B505000C000F2903D90749074800F071F90F2C47
:4017C00005D86034A40060590004000C00E0002000B270BD69020000E4230010F8B506000C0015000F2903D91A491B4800F058F90F2C2CD873681B0623D4230020339B0078
:401800009B595B051DD573681B0907221340013301279F407368DB0502D4102F00D9102721003000FFF79AFF002805D1A8B2390000F0F0F905B204E039B2280000F074FA76
:4018400005B26400054BE05A00B22D1A2DB22800F8BDC04663030000E42300102006000870B505000C0016000F2903D91549164800F016F90F2C20D86B689B071FD4320075
:4018800021002800FFF7AAFF104A4243002807DDA3000F495B58D80FC3185B10D01806E0A3000B495B58D80FC3185B10D01AA400074BE15800F038FA02E0002000E0002098
:4018C00000B270BD05040000E42300101027000040060008034A9369802149040B4393617047C04600F02540024A9169024B0B409361704700F02540FFFFFFFE10B5074AEA
:40190000074813580F24A34302210B43135004381358A3431943115010BDC0460000214004F0000010B5074A074813580F24A34303210B43135004381358A3431943115086
:4019400010BDC0460000214004F000000449054A8858054B0340C020C00103438B5070470000214004F00000FF8FFFFF0449054A8858054B03408020C00103438B5070478E
:401980000000214004F00000FF8FFFFF70B50500012803D92A492B4800F082F800F019F90400294B294AD3581F221340E822D200B02149058A5CD31A5A1E9341DBB29D4295
:4019C00039D0002D14D1FFF785FFFFF797FF1F481D4943581F229343143A13434350FFF7B5FFE823DB00B0225205D35CDAB211E01648154943581F229343143A1343435006
:401A0000092000F041F8FFF7B1FF114BB0225205D35CDAB20D4E0C4831581F23994313400B433350012D06D1092000F02DF8FFF779FFFFF759FF200000F0CFF870BDC046EB
:401A4000ED060000202400101CFF0000000026404107000010B5040006E0084B186800F0AFF8074B9C46644480231B029C42F4D8044B1868604300F0A3F810BDD80000084D
:401A80000080FFFFD400000810B5034B1B78584300F096F810BDC046D000000801BEFEE770B50D00044C18220100200000F0B8FAA5610020FFF7F2FF10040008054B802224
:401AC00012069A649B6C002B01DB002000E002487047C0460000274003004600054B8022120198585B68FF221A4202D08023DB021843704700002640FEE7C04610B50A4B07
:401B00000268DA6142681A6282685A62C2689A620269DA6242691A6382695A63C2699A63FFF7EAFF10BDC04610040008F0B5002801D0192200E064228A42924152421C4BC8
:401B4000E8256D005C590327BC433A4014435C515C59184E34405C51D03D5C59BC4322435A515A5916405E51002805D010290DD921290DD8012014E01D290BD93A290BD9F9
:401B800057290BD978290BD803200AE0002008E0022006E0002004E0012002E0022000E00420054A13680F218B4303431360F0BD00002140FFFCFFFF000025400000000006
:401BC0000230800803D001300238FCD1C046C0467047EFF3108072B6704780F310887047042805D1094A116804230B4313600CE00006C0239B04184090239B00044AD0500C
:401C0000024A136804218B431360704710E000E000002140002243088B4274D303098B425FD3030A8B4244D3030B8B4228D3030C8B420DD3FF22090212BA030C8B4202D3D7
:401C40001212090265D0030B8B4219D300E0090AC30B8B4201D3CB03C01A5241830B8B4201D38B03C01A5241430B8B4201D34B03C01A5241030B8B4201D30B03C01A52419E
:401C8000C30A8B4201D3CB02C01A5241830A8B4201D38B02C01A5241430A8B4201D34B02C01A5241030A8B4201D30B02C01A5241CDD2C3098B4201D3CB01C01A52418309B3
:401CC0008B4201D38B01C01A524143098B4201D34B01C01A524103098B4201D30B01C01A5241C3088B4201D3CB00C01A524183088B4201D38B00C01A524143088B4201D3CA
:401D00004B00C01A5241411A00D20146524110467047FFE701B5002000F0F0F802BDC0460029F7D076E7704703460B437FD4002243088B4274D303098B425FD3030A8B422A
:401D400044D3030B8B4228D3030C8B420DD3FF22090212BA030C8B4202D31212090265D0030B8B4219D300E0090AC30B8B4201D3CB03C01A5241830B8B4201D38B03C01AB2
:401D80005241430B8B4201D34B03C01A5241030B8B4201D30B03C01A5241C30A8B4201D3CB02C01A5241830A8B4201D38B02C01A5241430A8B4201D34B02C01A5241030A37
:401DC0008B4201D30B02C01A5241CDD2C3098B4201D3CB01C01A524183098B4201D38B01C01A524143098B4201D34B01C01A524103098B4201D30B01C01A5241C3088B42F9
:401E000001D3CB00C01A524183088B4201D38B00C01A524143088B4201D34B00C01A5241411A00D201465241104670475DE0CA0F00D04942031000D34042534000229C464A
:401E400003098B422DD3030A8B4212D3FC22890112BA030A8B420CD3890192118B4208D3890192118B4204D389013AD0921100E08909C3098B4201D3CB01C01A524183091C
:401E80008B4201D38B01C01A524143098B4201D34B01C01A524103098B4201D30B01C01A5241C3088B4201D3CB00C01A524183088B4201D38B00C01A5241D9D243088B4231
:401EC00001D34B00C01A5241411A00D20146634652415B10104601D34042002B00D54942704763465B1000D3404201B5002000F005F802BD0029F8D016E770477047C04600
:401F00004302590A4300C20F1B0E00207E2B0EDD9D2B0DDC802000040143952B0BDC9620C31AD9400B005842002A00D118007047034BD018FBE7963B99400B00F3E7C04600
:401F4000FFFFFF7F70B5002830D0C317C5185D40C40F280000F03EF89E231B1A962B0DDC9622D21A95406A02520AD8B25202C005520AE40702432243100070BD992B19DCB8
:401F80009922D21A9540124A2A40690704D00F210D40042D00D00432510103D50C4B1A409F231B1A9201520AD8B2DFE7002400200022DBE705222E00121AB921D6402A0013
:401FC000C91A8A40551EAA4135001543DBE7C046FFFFFFFB1C2101231B04984201D3000C10391B0A984201D3000A08391B09984201D30009043902A2105C40187047C046AB
:402000000403020201010101000000000000000003008218934202D019700133FAE77047030030B5002A0DD00C7801335D1E013A2C700131002CF5D19A189A4202D01C70EF
:402040000133FAE730BD0000F8B5C046F8BC08BC9E467047F8B5C046F8BC08BC9E467047030000000100000001000000000000000503600004000000010000000000000060
:40208000010000000604600008000000D8050008D9040010F4010000140004010A0009050800000063010000000000000000000000000000000000BA00000000000000008F
:4020C000000000000000000000001D1D0000000001000000E0200010000000000200000072CE20538C00009004000200020002000002000E000000000100000000000000A9
:40210000000000000000000000000000000000000000000000000000000000000000000000000000000000000000000000000000000000000000000000000000010000009E
:402140000000000000000000000000000000000000000000E40C00005C0800106808001074080010800800108C08001098080010A4080010B0080010DC080010E60800108D
:40218000F0080010FA080010040900100E090010180900102209001047656E6572617465645F536F757263655C50536F43365C70646C5C647269766572735C70657269709C
:4021C000686572616C5C737973696E745C63795F737973696E742E630000000047656E6572617465645F536F757263655C50536F43365C70646C5C647269766572735C70F2
:4022000065726970686572616C5C6970635C63795F6970635F6472762E68000047656E6572617465645F536F757263655C50536F43365C70646C5C647269766572735C702D
:4022400065726970686572616C5C6970635C63795F6970635F6472762E63000047656E6572617465645F536F757263655C50536F43365C70646C5C647269766572732F701F
:4022800065726970686572616C2F6970632F63795F6970635F6472762E68000047656E6572617465645F536F757263655C50536F43365C70646C5C647269766572735C7007
:4022C00065726970686572616C5C6970635C63795F6970635F706970652E630047656E6572617465645F536F757263655C50536F43365C70646C5C647269766572735C7010
:4023000065726970686572616C5C737973636C6B5C63795F737973636C6B2E630000000047656E6572617465645F536F757263655C50536F43365C70646C5C6472697665D3
:4023400072735C7065726970686572616C5C737973636C6B5C63795F737973636C6B2E680000000047656E6572617465645F536F757263655C50536F43365C70646C5C6493
:402380007269766572735C7065726970686572616C5C6770696F5C63795F6770696F2E630000000047656E6572617465645F536F757263655C50536F43365C70646C5C6476
:4023C0007269766572735C7065726970686572616C5C6770696F5C63795F6770696F2E680000000047656E6572617465645F536F757263655C50536F43365C70646C5C6431
:402400007269766572735C7065726970686572616C5C7361725C63795F7361722E63000047656E6572617465645F536F757263655C50536F43365C70646C5C647269766511
:4024400072735C7065726970686572616C5C737973706D5C63795F737973706D2E630000000000000000001000000008C000000084240010C0000008500300004C040008F0
:402480003402000000127A0000093D0000093D0000093D0004000000A00F00000000D00702FF0000E9000010C1000010000000000004400B12D03E22094B1A60094A0A4B2C
:4024C0001A600A4B0621A322D2009950084A98509B58074B054AD358002BFADA7047C046040126401E1F000008012640000026401C05000010B54378FF2B0DD100F05AF948
:40250000064BDB685A68116801230B4313601368DB07FCD400F056F910BDC04680002340F0B583B006000F0000F034F90500032824D12B4B1B69002B22DB002000F032F939
:40254000284B98421ED00023274A0021012000F009F9002803D0254C17E0013400E00024002000F01FF91F4B984202D0204B9C42F3D91F4B9C4207D91C4C06E0002404E0EB
:402580001A4C02E0194C00E00024002C24D100F011F90190174A0121174800F0DBF800280ED1002E04D13800FFF782FF134C08E0114B1B69002BFBDB00F0E4F8040000E088
:4025C0000A4C032D05D10121002000F0D3F80028F9D1019800F0F6F8200003B0F0BDC046C000234001018800DC00000805005200EF4902001006000800002340010050009F
:4026000070B5304B1B68002BFBDA2E4BD96802220A43DA60DB68DB071FD52A4EF2681204150C294B1A69120A1204FF2424042240110090241A59120A12060A432A43F260A2
:402640001969224A114090252D012943196119590A402A431A511A691B591A4B00225A605B681B4A116904230B431361012801D030BF00E020BF134B1B68002BFBDA114B16
:40268000DB68DB0715D510480269104B1A4014000C4DEA68120C1202FF2109020A4022430261902142581340EA68120E120213434350044BDA6802218A43DA6000225A60C1
:4026C00070BDC046E000234000002140FF00FFFF00ED00E0164A116904230B431361012801D030BF00E020BF124B1B68002BFBDA86235B00104AD358002B14D10F4A104BA1
:402700001A6006220F4B1A6038320F4B1A6006320E4B1A600D4B1B68002BFBDA0C4986235B00054AD1500022024B5A607047C04600ED00E0E0002340000025401E1F00009E
:402740000801264018052640040126401C052640AAAAAAAA01B40248844601BC604700BF810A001001B40248844601BC604700BF0D0E001001B40248844601BC604700BF43
:40278000A50B001001B40248844601BC604700BF1D13001001B40248844601BC604700BF4904001001B40248844601BC604700BF310C001001B40248844601BC604700BFBF
:4027C000D31B001001B40248844601BC604700BFDB1B00100000000000000000000000000000000000000000000000000000000000000000000000000000000000000000E9
:0200000490303A
:02000000A0F06E
:0200000490501A
:0C0000000005E20621002101E212C1F01F
:00000001FF