:020000041000EA
:4000000000400208310100100D000000950100100000000000000000000000000000000000000000000000000000000091010010000000000000000091010010910100109B
:4000400091010010E104001091010010910100109101001091010010910100109101001091010010910100109101001091010010910100109101001091010010910100100D
:400080009101001091010010910100109101001091010010910100109101001091010010910100109101001091010010910100109101001091010010910100109101001020
:4000C00010B5064C2378002B07D1054B002B02D0044800E000BF0123237010BDEC04000800000000346C0010084B10B5002B03D00749084800E000BF07480368002B00D1DC
:4001000010BD064B002BFBD09847F9E700000000F0040008346C001084010008000000007047EFF3108072B6704780F310887047FFF7F6FF72B6104C104DAC4209DA2168C3
:400140006268A368043B02DBC858D050FAE70C34F3E70B490B4A0020521A02DD043A8850FCDC094809490860BFF34F8F00F01EF900F01EF8FEE70000386C0010506C001044
:40018000EC040008040700080000000808ED00E0FEE7FEE700B504207146084202D0EFF3098001E0EFF30880043001F0F3FBFEE710B562B6114800F06DF900F0E9FA104B79
:4001C0001B68586800230222002103F0F5F90C4B186842685368013B5360002B04DA416803F0BAF9C1B204E042681368591C11601978044803F096F9E9E7C0460000081041
:40020000400100088865001070B55F49E0239B00CB580F2213401A00D0329200525807210A4002D0042A02D00FE0584811E01A00C0329200544952581F210A40112A06D0CA
:40024000132A04D0FA20C00103E0514801E080200002002B36D14C4BB222D2009A5801211140B125ED005A59120F032422405B591B0F1C4207D0444C63591B0F032423408C
:40028000012B02D102E0012300E00023002B01D0002901D1032A4BD13B4BB022D2009D58AD03AD0B3B495958C904C90C9C58240E01231C40013401F021FC6843210001F0F2
:4002C0001DFC35E0012B33D12F4BC822D2009A5801251540C024E4001A59120F03210A401B591B0F194207D027490B591B0F03210B40012B02D102E0012300E00023002BC3
:4003000001D0002D01D1032A12D11F4DC022D200AB587F210B40A958090A1F263140AC58240C3440584301F0E9FB210001F0E6FBE0239B00144AD3581B0903221340D8401F
:40034000154C2060154B1D692D0AFC32154001351969090E013101F0D1FB6060290001F0CDFB0500A060E0600D4BC0180D4901F0C5FB20740C4BE818FA21890001F0BEFBE7
:400380006061C003A06170BD0000264000127A0000366E0184050000C0000008000021403F420F0040420F00E703000010B5234BB021C9005A58520052085A50E0208000E2
:4003C0001A583024A2431A50802252045A501C491C4A9950A021890104329950FF211A4A995081315A58920092088020C00502435A505A588020000602435A505A580120BD
:4004000082435A5000F072F9FFF7FEFE00F070F800F078F801F060F9B0235B055B78002B04D0B0235B055B78DBB200E02123212B03D1064B0022DA605A6010BD0000264088
:4004400001000200840500008C050000E00023408023024AD3580320184070470000214010B5FFF75EFE084980228C58074B2340074C23438B508823034AD358DB06FAD565
:40048000FFF753FE10BDC04600002140FCFF00000100FA0570B50500FFF743FE0400FFF7D7FF032801D1FFF7DBFF0A4AB0239B00D55080215058084B0340084803435350C9
:4004C0008823044AD358DB06FAD52000FFF72DFE70BDC04600002140FCFF00000300FA0510B5024800F0D8FC10BDC0460805000810B5034A60328021042000F0BDFA10BDBE
:400500000806000810B501F0B0FA0400044800F073FB044800F0DAFB200001F0AAFA10BD080500088C65001010B504002100034800F05CFE0028F9D010BDC0460000664005
:40054000C2239B00034AD358DB05F9D0D0239B00D058704700006640FEE7C04630B587B0514BA021C9005A58032082435A504F4990240A594E4802400A510A691202120AD1
:400580008024640422430A610A6910400861E022920099580F20814399509958213081439950995880200006014399500021012000F0D4FC0021022000F0D0FC00210320DA
:4005C00000F0CCFC0021042000F0C8FC0021002000F0C4FC01A8374903000A0032CA32C312CA12C300F0E2FC002802D00420FFF7B3FF2D49304A8B588020000603438B5053
:400600002E4800F08DFD002802D00420FFF7A4FF254C2B4BE1582B4A0A40E250E1582A4A0A40E250E25880252D062A43E250043BE158264A0A40E250E158254A0A40802131
:4006400089010A43E250E258802109020A43E250204A1168204B0B40802149000B431360002001F009FA1D4BE2581543E550E158012291430A43E2506421002001F0A2F9A5
:40068000174B0021174A9950802109015858084A02408C20800102435A508022D200124999509B5807B030BD0000264000002140FF00FFFFC0650010087F0000400D030043
:4006C00004050000FEFCFFFFFFFF00FFFFF0FFFFFF8FFFFF00002740FFFCFFFF0C05000000000140140C000000FF008070B58AB09621002001F066F901F03CF9002801D18C
:4007000001F028F9012001F0A7F81B4A516C1B4B0B40E82189010B435364536C1B0AFF2213403A2B07D1144A516C154B0B40E82189010B435364FFF711FF01AD114C2A005D
:400740002300143343CB43C243CB43C243CB43C229000D4800F0CAFF2A002300383313CB13C213CB13C213CB13C22900074800F0BDFF0AB070BDC04600002740FF00FFFF59
:40078000FFC5FFDFC0650010800232400003324010B5094B1B78002B07D1084A0849094800F038FD0122044B1A70064A1368802109060B43136010BD98060008C8060008B0
:4007C0001C6600100000664010B583089A00801AC000FF228240D44381400A40072B32D89B001949CB589F46184B196A0C4022431A6228E0154B596A0C4022435A6222E08A
:40080000124B996A0C4022439A621CE00F4BD96A0C402243DA6216E00C4B196B0C4022431A6310E0094B596B0C4022435A630AE0064B996B0C4022439A6304E0034BD96B4D
:400840000C402243DA6310BD5C6600100000214083089A00801AC100FF228A40072B2BD89B001748C3589F46164B186A1040C84023E0144B586A1040C8401EE0114B986ADD
:400880001040C84019E00F4BD86A1040C84014E00C4B186B1040C8400FE00A4B586B1040C8400AE0074B986B1040C84005E0054BD86B1040C84000E00020C0B27047C046D8
:4008C0007C6600100000214070B504000D000B4B9A680B4B9A420BD1002903D1FC21094801F02AF81034064BA400E058E55003E01034A400044BE05870BDC04600ED00E093
:40090000000000089C66001000000010F0B583B0041E019150D04368032B03D93621294801F00AF80023E05E002802DBA178FFF74BFF0023E25E6368002A12DB9008224E65
:40094000C0308000875903210A40D200FF25290091408F4399012B000B4093403B43835117E092B20F21114008398908063189001648844661444E6803200240D200FF2794
:4009800038009040864398013B000340934033434B600E4B9A680E4B9A420FD1019B002B03D14521074800F0C7FF0023E05E0199FFF78AFF002002E0064800E0002003B068
:4009C000F0BDC0469C66001000E100E000ED00E0000000080100560070B504000D000369002B0ADA0B0C03D00549064800F0A4FF2D042D0C6560002000E0034870BDC046CE
:400A0000A7020000E066001001008A0070B505000C000368002B01DA002300E0084B002B0BD1EA60230C03D00649074800F084FF2404240CAC60002000E0014870BDC046EB
:400A400001008A008E020000E066001070B505000C1E03D19921064800F06EFF2B69002B03DAEB682360002000E0024870BDC0462067001001008A00F8B504000E00150093
:400A80000F283FD8002A10D100290ED10F2804D99E21FF31214800F04FFF6401204B9C466444204B1C60002037E0002D2CD0002E2CD0F3062CD10F2C04D99E21FF31174804
:400AC00000F03AFF6401164B9C466444154F3C607E60BD60F2080021280002F0A5F800212000FFF779FF3A0001CA0021FFF78EFF00280FD10B4B18680021FFF76DFF0028CF
:400B00000AD10AE0084808E0074806E0064804E0054802E0054800E00448F8BD60670010000023409C06000803018A0001018A00F0B583B00D001C4B1B68DC682368834293
:400B40002DD947097B01C01A012383401E00002903D100F08AFF019001E000230193124B18680368002B01DA002300E00F4B002B0ED16368BF00DF193B68334203D0B3430D
:400B80003B60002400E00A4C0021FFF725FF00E0084C002D04D1019800F06BFF00E0064C200003B0F0BDC0469C06000801008A00020188000301880004018A000A4B1B6871
:400BC000DA68136883420BD943095901401A0121814052689B009B580B4203D0034802E0034800E0034870479C0600080101880004018A0000018800034B1B68002B01D1D0
:400C0000014B18607047C046A8060008F0B5474680B404000F0090461E00072803D9B421254800F089FE254B1B682C2060431C18FF22150035402560330A13406360330C74
:400C4000A3600F2D04D99E21FF311D4800F074FE6B011C4A94466344236165680F2D04D9DC214900164800F067FE6D01164B9C4665446561A668330C04D0EB2149001048FE
:400C800000F05AFE330C04D0D821FF310C4800F053FE3604330C1E43AE604346E36127620023A361069B002B02D000229B5EA38104BC9046F0BDC046A0670010A8060008C3
:400CC000606700100000234000102340F0B58FB0041E03D150212E4800F02EFE6368032B03D952212A4800F027FEE36A002B03D15621274800F020FEE368072B03D957218A
:400D0000234800F019FE236A072B03D95821204800F012FE236B002B03D159211C4800F00BFE07AA1300210061C961C321C921C302AD290023001433C1CBC1C141CB41C102
:400D40000821535E0CAE3380079B1933B370089B0D930B9B0A980096A26AE16AFFF756FF2B69E868002200920021FFF74FFF216B3000FFF7CBFD0023F25E002A05DB1F2322
:400D80001A401E3B9340034A13600FB0F0BDC046A067001000E100E0F8B505000F0016001C00002A03D1FC21244800F0C5FD072D03D9FD21214800F0BFFD072F03D9FE2103
:400DC0001E4800F0B9FD1E4B1B682C2128004843181879435918012213004D68AB401B044568AA4015000269002A20D08F69002F1FD11268002A01DA002200E0114A002A5B
:400E000019D132681204120C134333600369DE6001238B614C6204692B0C03D00A490B4800F08AFD2A04120CA260002004E0084802E0084800E00748F8BDC046A067001040
:400E4000A806000801008A008E0200006067001004028A0007028A0070B505000C001600072804D96021FF31084800F065FD084B1B682C2068431818C369B34204D9036A94
:400E8000B6009C51002000E0024870BDA0670010A80600080A028A0070B582B0040000230193002804D1D92149002B4800F044FD2369002B04D1B421FF31274800F03CFD96
:400EC0006369002B04D1DA214900234800F034FD236A002B04D1B621FF311F4800F02CFD6269D5682B0C1FD01B041360136820690369002B18DA01A9FFF7A8FD00280ED1A9
:400F0000019803681E0CFF221340E269934207D29B00226AD358002B02D0984700E0002631002069FFF758FD2D042D0C0FD063691D601B68636A002B03D098470023636236
:400F400003E0A36A002B00D098470023A36163691B6802B070BDC046A067001004281DD8042904D94B1EFF3B9BB2132B18D8FF290CD91F2319400B4A0300C0339B00995075
:400F8000D03080000423835000200AE007231940D0308000034BC150002002E0024800E0014870470000264001004A0070B5041E04D1EF2149004C4800F0BEFCB023DB000D
:400FC0004A4AD358002B01DB002500E0484D002D00D086E0474B22689A4204D9EE21FF31414800F0A9FC23689B03990BE3791B068022520413400B43B022D2003B498B5016
:40100000A2883D4B9A4204D9FA214900364800F093FC2289394B9A4204D9F621FF31324800F08AFCA388DB04D90C23891B04344A13400B43334A2D498B50A37A0F2B04D9EA
:40104000FC21FF31284800F077FCE37A0F2B04D9FE214900244800F06FFCA289264B9A4204D9FE21FF31204800F066FCA37A0F211940E27A1201FF2313400B43A289120238
:4010800021490A401343A27B1207C02189050A401343B122D20015498B50A379072B03D91A49114800F048FC228A144B9A4203D917490D4800F040FC0C4816494658164B93
:4010C0001E40A3791B02E022D2001340334343504658124B1E40238A1B04094A134033434350280070BDC046E06700100000264003004A00FFFF0300FF1F0000FF010000D1
:401100000000FF018405000000FF1F0005020000060200008C050000FFF8FFFFFFFF00FE70B505002D492E4A8B588020000603438B502C0003E0012000F0F2FB013CB22396
:40114000DB00264AD3585B0701D4002CF3D12349B122D2008858234B03408020800503438B50002D02D00ED0002C0CD01B49B022D2008B588020000603438B5003E001204F
:4011800000F0CEFB013CB223DB00144AD358DB0701D4002CF3D1002D0ED0002C0CD10F4AB021C90053585B005B0853500C4953585B005B0853500BE0084B0221B222D200DE
:4011C0009950B121C9005A58C020800502435A50002C01D1044800E0002070BD000026408C050000FFFFFFCF02004A0003681B0501D5802200E0402282239B00C358DB055F
:40120000DB0D934204D090239B00C150012000E000207047F8B505000C001600002800D1C1E1002900D1C0E1C04B984200D1BEE10B78022B03D94221BD4800F07DFB637B4D
:40124000023BDBB2062B03D94321B94800F074FBA37B002B07D0022B05D0032B03D04421B34800F069FB2123E35C012B03D94521AF4800F061FB2823E35C012B03D94621CF
:40128000AB4800F059FB2378012B06D86268083A082393429B415B4208E0A37F002B05D063685A1E062393429B415B42002B03D048219F4800F040FBA368053B042B03D93A
:4012C00049219B4800F038FB6369FF2B03D94A21974800F031FBA369FF2B03D94B21944800F02AFBA37C002B0FD02378002B07D1A368092B06D1A37B002B05D0012304E0D4
:40130000012302E0012300E00023002B03D04D21874800F011FB874B626B1A4203D04F21834800F009FB844BE26B1A4203D050217F4800F001FB2378022B02D1A37F002BF5
:4013400002D063685A1E00E00022237F002B02D08021490200E00021A368082B02D880231B0100E0002319430F2313400B438022920413432B60236B2A68120501D58022F9
:4013800000E04022934203D36521694800F0D4FAA36B2A68120501D5802200E04022934203D36621624800F0C7FA636A2A68120501D5802200E04022934203D367215C4846
:4013C00000F0BAFA23781B06C022920413402B64637F002B01D0402200E00022A07C002802D08023DB0000E000231A43237C002B02D08021490000E000210A43637C002B1F
:4014000002D08021890000E000210A43E36A013B1B04F020000303401343627B013A07210A4013431900A27B120130231A400B001343AB64237B002B02D08021490000E063
:401440000021E27B002A04D12378022B03D1013B02E0012300E00023002B02D080239B0000E000230B43A268013A0F273A401343C02292009446AB50FF2260691040A369A8
:401480001A04FF2109040A400243C4239B00EA50E26A6346EB583B4003339A4201D3102A03D97D21224800F047FAE37F002B04D02378012B03D0002302E0002300E0012387
:4014C000002B02D08021490000E00021627B013A072313401943A27B120130231A400B0013436B64237B002B02D08021490000E00021A3685A1E0F2313400B432278012A65
:4015000002D18022520200E00022134380229200AB50FF23226B1340C1229200AB502023E35C002B0AD08021890408E000006940EC68001092F4FFFF8CF8FFFF00212122D5
:40154000A25C012A02D180235B0400E000230B432822A25C012A02D18022520200E000221343FF21626A0A4013432B65A36B0B4081229200AB50104B626B13400F4AAB5014
:40158000E26B0F4B13400F4AAB50002E11D0002373603360B360F3603362F36233630A4B7363002006E0094804E0084802E0074800E00020F8BDC0466D0B0000C80F00006E
:4015C00073070000880F0000EFCDAB000160AA00214B984230D00ED8402831D004D800281FD010282AD031E080282BD080235B00984229D02AE0194B984229D007D8A02346
:401600001B0698420DD0164B984212D01EE0154B98420AD0144B984209D0144B984215D101E0002016E0124814E0124812E0124810E0A020C0030DE007480BE00F4809E0AD
:401640000F4807E00F4805E0034803E00E4801E0A420C0037047C04606005200010000F0090000A0040000F0050000F0030000F0010052000200520003005200010050002C
:401680000200500005005200FF00520010B50C4B1B69002B11DB0B4B1868FFF799FF0121094B0A4AD150084B084AD358002BFAD1074BD358002BF6D100E0064810BDC046F4
:4016C00000002340AC0600080C040000000025408C0400000200500010B5022202490020FFF7BAFB10BDC046CD01000870B505000C00002848D0002948D0FF230A689A43A6
:4017000003D08D21224800F017F9FF2322699A4303D08E211E4800F00FF9A3685B0D03D08F211B4800F008F963685B0A03D09021174800F001F9E3695B0F03D09121144876
:4017400000F0FAF8236A5B0F03D09221104800F0F3F8104BEB18DB090F4A944663441B0122682A60E268AA622269EA6262692A63A2686A626268AA61A2696A63E2691A60BE
:40178000226A5A60002002E0044800E0034870BD2C6900100000CEBF0010030401005A00034A9369802149040B4393617047C04600F02540024A9169024B0B409361704785
:4017C00000F02540FFFFFFFE10B5074A074813580F24A34302210B43135004381358A3431943115010BDC0460000214004F0000010B5074A074813580F24A34303210B430F
:40180000135004381358A3431943115010BDC0460000214004F000000449054A8858054B0340C020C00103438B5070470000214004F00000FF8FFFFF0449054A8858054B9E
:4018400003408020C00103438B5070470000214004F00000FF8FFFFF70B50500012803D92A492B4800F068F800F0FFF80400294B294AD3581F221340E822D200B02149051A
:401880008A5CD31A5A1E9341DBB29D4239D0002D14D1FFF785FFFFF797FF1F481D4943581F229343143A13434350FFF7B5FFE823DB00B0225205D35CDAB211E016481549A5
:4018C00043581F229343143A13434350092000F027F8FFF7B1FF114BB0225205D35CDAB20D4E0C4831581F23994313400B433350012D06D1092000F013F8FFF779FFFFF7DA
:4019000059FF200000F0B5F870BDC046ED060000AC6900101CFF0000000026404107000010B5034B1B78584300F096F810BDC046D000000801BEFEE770B50D00044C1822B4
:401940000100200001F0EFFEA5610020FFF7F2FFB0040008054B802212069A649B6C002B01DB002000E002487047C0460000274003004600054B8022120198585B68FF22F9
:401980001A4202D08023DB021843704700002640FEE7C04610B50A4B0268DA6142681A6282685A62C2689A620269DA6242691A6382695A63C2699A63FFF7EAFF10BDC04614
:4019C000B0040008F0B5002801D0192200E064228A42924152421C4BE8256D005C590327BC433A4014435C515C59184E34405C51D03D5C59BC4322435A515A5916405E51B7
:401A0000002805D010290DD921290DD8012014E01D290BD93A290BD957290BD978290BD803200AE0002008E0022006E0002004E0012002E0022000E00420054A13680F21A9
:401A40008B4303431360F0BD00002140FFFCFFFF00002540000000000230800803D001300238FCD1C046C0467047EFF3108072B6704780F310887047042805D1094A11680A
:401A800004230B4313600CE00006C0239B04184090239B00044AD050024A136804218B431360704710E000E00000214070B50D001600002907D1002408E02878FEF734FD86
:401AC0000135013400E00024B442F6DB200070BD70B50D00160000290AD100240BE0FEF72FFDC0B2287001340A2804D0013500E00024B442F3DB200070BDC04600224308E4
:401B00008B4274D303098B425FD3030A8B4244D3030B8B4228D3030C8B420DD3FF22090212BA030C8B4202D31212090265D0030B8B4219D300E0090AC30B8B4201D3CB03FF
:401B4000C01A5241830B8B4201D38B03C01A5241430B8B4201D34B03C01A5241030B8B4201D30B03C01A5241C30A8B4201D3CB02C01A5241830A8B4201D38B02C01A52412A
:401B8000430A8B4201D34B02C01A5241030A8B4201D30B02C01A5241CDD2C3098B4201D3CB01C01A524183098B4201D38B01C01A524143098B4201D34B01C01A5241030938
:401BC0008B4201D30B01C01A5241C3088B4201D3CB00C01A524183088B4201D38B00C01A524143088B4201D34B00C01A5241411A00D20146524110467047FFE701B500208F
:401C000000F006F802BDC0460029F7D076E770477047C046F0B556464D4644465F46F0B41D000E034C00CB0F87B0070092468146360B640D98466AD06D4B9C4235D0802251
:401C4000430F12041343F6001E43C3009946694B00279C460023644402932B0368001B0BED0F51469B46400D009500D178E0604B98426CD05B46DA004B0F802109040B43C3
:401C800013439B465346D9005A4B9C46002360444246201A6A40924601901F430F2F00D9B0E05548BF00C0598746374300D088E0002399460233082700260293CDE74346FD
:401CC000B34649460093029B009A9246022B00D0BFE1002153460122002689461A40444B002136030C0D2405360B2643434C1B0526401E437600D2077608164348463100C1
:401D000007B03CBC90469946A246AB46F0BD330003434FD0002E00D1BCE1300000F058FE03000B3B1C2B00DDADE11D220100D31A08393A008F408E40DA40B9461643304BE2
:401D400000279C46002360444442029385E753465A4613432CD1002300219B46023397E70B4320D05B46002B00D19EE1584600F02FFE03000B3B1C2B00DD8FE10200594615
:401D8000083A91408B461D21CB1A5146D9400B0059460B4351469B469140194B9C4660444042002374E7002300219B4601336FE703236DE7002399460133042700260293FC
:401DC0004BE703230C27029347E70122D51A382D00DCB0E153461A4000210023002689467EE700238026994600223603004B77E7FF07000001FCFFFFEC690010FFFF0F8081
:401E0000F30300005E4500D972E100D16DE1019B4D46013B01930023340002935B461E020B0E1E430B020393330C994633041B0C494620000093FFF761FE009B370043438A
:401E40000600494620009846FFF7DEFE2C0C09040C43A04509D9E419731EA74200D95CE1A04500D859E1023EE4194346E41A49462000FFF743FE0300009A804653434946EC
:401E800020009B46FFF7C0FE2A040904120C0A4393450DD94346D219013B974200D93AE1934500D837E102235B429C46D219E0445B46D21A4346360433439B460399180CAA
:401EC0000B0C1D00059309045B46090C0C001B041B0C4443049159436B4368431B190D0CEB189C4203D980246402A44660441C0C09041B04090C20185D18824200D2DEE0E4
:401F000000D1D7E0161A029B9C465D1BAC459B415B42F61AB74200D106E149463000FFF7EDFD009B04004343494630009846FFF76BFE2E0C09040E43B04509D9F619631E08
:401F4000B74200D9F3E0B04500D8F0E0023CF6194346F31A494618000293FFF7CFFD009B06004343494602989846FFF74DFE2D0409042D0C0D43A84509D9ED19731EAF42B1
:401F800000D9D6E0A84500D8D3E0023EED192404210043463143049E059A3000ED1A0B040C0C1B0C58436643534354439A19030C9B189E4203D980225202944664441A0C88
:401FC00000041B04000C14191B18A54250D34DD001231943964A019B94466344002B00DCF3E64A0709D00F220A40042A05D00A1D8A42894149428B4411005A46D20108D5AE
:402000005A468C4B1A4093468022D2009446019B6344894A934200DD5BE65A46C908500708435602514601225B058146360B5B0D0A4055E680231B031E4211D05A461A4227
:402040000ED15E461E433603360B2A0089467B4B46E6032B00D1E1E0012BBBD11A40BBE61E433603360B4246744B39E6002BB1D07D194A1EAF4252D91100A542A8D1039A8F
:402080009A42A5D1A6E703003E00283B9E400023994654E600F09CFC203041E603005246283B9A400021934677E6504600F090FC20305EE6029B0026AB4200D323E7039E81
:4020C0000299B44661448846B045B6415B467642F619B218013B0291974213D290424FD800D18EE0161A9B460DE7894500D28EE674084B46F60735005B081D434B46DB0767
:4021000002938BE69742EDD10399029CA142E5D93E1A9B46F7E69846CAE61E00A5E6AC423ED874D0110053E70121494252E71C000EE71E002BE71F2D3CDC20230A005846D1
:402140005B1B9840EA4099400243481E81415E461143EE404B0709D00F230B40042B05D00B00191D99429B415B42F61833023CD55346012200211A40002601238946AFE502
:4021800002235B429C46039CE344A446029B63449846A045B6417642F6190293B218B1E603988A1E41008142B6417642F619AD19039161E71F225242D31A5A46DA401300DA
:4021C000202D29D040225846551BA8400143481E814107200B4318400026002809D00F2200261A401900042ABBD10B0070077602360BDB0803439946012253461A400023E1
:402200006EE502998D42BBD89B4600267BE603989842C5D3110032E70020D7E780265B4636031E433603360B009A8946034B57E5FF030000FFFFFFFEFE070000FF0700007B
:40224000F0B557464E464546E0B40E001100F20F9246C500420F180337037400400A4E0F7F0A3043CF4E17435A00640D520DDB0FC900B24200D1E5E001267340A61AB4467D
:40228000534500D1AFE0002E00DC0DE1002A3AD103000B4300D0E4E06B0709D00F232B40042B05D02B1DAB42AD416D427F191D003B0200D488E0BB4B01349C4200D110E14D
:4022C0003A00B94B51461A4001235007ED08520264050543120B640D0B400021280012030D0D120B64052D0515436208AF4CDB072C401443640064081C4321001CBC9046D1
:402300009946A246F0BDA74B9C42C5D080231B0418436346382B00DDFDE01F2B00DD30E1624620239B1A02009A40664690460A009940F24046464B1E994132431143634655
:402340000200DA40691A8D429B410D00BA1A5B42D71A3B0235D57A02530A98464346002B00D1C4E0404600F033FB0300083B1F2B00DDC5E020222900D21A4746D1409F40F3
:402380000A009D403A439C4200DDC0E01C1B631C1F2B00DDE4E0202114002800C91AD8408C408D400443DA40681E854117002543002471E7424663461A4300D14CE26746CA
:4023C00045466B0700D069E7012351467807ED08FA080B40054373498C4238D012036405120B640D79E7002E00DC9AE0002A47D06C4A944200D14FE78022120410436246F3
:40240000382A00DC08E10143481E81410022C9B24919D219A942BF410D007F42BF183A0200D442E15F4A0134944200D14EE101205D4A69083A4028400843D50705435708BF
:402440009A4629E706000E4300D017E714E72900114300D1F9E1802109030A431203120B3BE701235B429846C4446346002B72D1691A8D429B413F1A5B42FF1A0D0068E77F
:4024800002000A4300D107E7012252429046C4446246002A00D0E6E06918A942B6413F187642F7190D00BAE7002E00D080E0621C5205520D012A00DCF9E06A1A91464D4582
:4024C000B6413A1A7642921B9046120200D499E04D1BA9428941C71B49427A1A90469A463CE752460123002513400022F5E6280000F06EFA20300300083B1F2B00DC39E771
:402500002A002838824000259C4200DC3EE7264FE41A1740C0E60143481E81410022C9B210E7002E00D0F1E0621C94465205520D012A00DCA0E01B4A944500D1C5E0691842
:40254000A94292413F185242D2194908D5070D4357086446A0E6134B9C4200D0D9E69BE611001F3CE1400C00202B00D180E04021CB1A9A4015436A1E9541002725430024D1
:402580001FE763460200203BDA406346202B71D0402366469B1B98400143481E814111430022CFE6FF070000FFFF7FFFFFFF0F80002C48D0CA4CA24200D1A2E07442A1464F
:4025C0008024240427434C46382C00DDDBE01F2C00DD44E14E462024A41B3E00A640A246B0464C462E00E640B4464646644626435446A5406C1EA54134002C434D46EF405E
:402600000D1B28E04A4643464D461A4300D0A5E6002300240025DEE61F2A5ADC66462022921B060096409146B04662460E00D640424616434A4691404A1E91410200604623
:402640003143C240E4E63C002C435AD0F443A146002C52D14D1BA9428941C71B49427F1A14009A4675E69E4A944200D0C7E613E600227FE700208FE7002C00D0C8E03B0035
:402680002B4300D10FE103000B4300D104E66918A9429B413F185B42DF193B0200D41AE1904B0D001F406446F6E59A4689E63A002A43002C5CD1002A75D102000A4300D1F4
:4026C000CAE007000D009A46E6E564460022002581E662460600203AD6406246B046202A00D1B7E040226646921B904001434246481E8141114300228AE6794CA24200D0CD
:4027000061E707000D0014009A46C5E5002C41D13C002C4378D0F443A146002C20D0704CA24271D04C46382C00DDB2E01F2C00DDBCE02026341BA2463C005646B4404E464D
:40274000A0462C00F440A446444666463443A4465446A54064466E1EB54125434C46E7406D188D4289413F184942CF19140056E6002A2FD102000A4300D184E007000D00CC
:402780009A46574C88E53D436F1EBD41ECB200270D1B60E7524CA24236D0744280263604A1463743BEE702000A4300D174E56A1A90464545B6413A1A7642921B94461202CB
:4027C00000D4F7E54D1BA9428941C71B49427F1A9A4661E502000A433AD0ED087C072C438025FA082D032A4208D0C7082F4205D145072C003A009A46C9080C43670FD20075
:40280000E5001743364C47E507000D00140043E53A002A4343D002000A4319D0ED087C072C438025FA082D032A4207D0C6082E4204D147073C003200C9080C43D700620F31
:40284000E50017439A46264C26E50022002544E5234C21E5002049E700230025BBE54C463E00203CE6404C46B446202C31D040244E46A61BB7403D436C1EA54164462C43BB
:4028800000270D1BE7E6802200231203144C0025A1E53D436F1EBD410027EDB260E707000D000F4CF8E407000D00F5E44E463C00203EF440A0464C46202C0ED040244E46CB
:4028C000A41BA7403D436F1EBD4144460027254346E70027CFE70D0073E50027F2E7C046FF070000FFFF7FFF0B0330B5134D1A0B4B005B0DC90F0024AB4211DD104CA342D4
:4029000010DC8024640322430E4CE41A1F2C0CDD0D48C31ADA4013005C42002900D11C00200030BD094BCC18FAE7E040084CA44663449A4013000343EEE7C046FE03000062
:402940001D0400003304000013040000FFFFFF7FEDFBFFFF8446101C62468C46191C634600E0C0461FB500F0F5F8002801D40021C8421FBD10B500F049F84042013010BD27
:4029800010B500F0E7F8002801DB002010BD012010BDC04610B500F0DDF8002801DD002010BD012010BDC04610B500F06FF8002801DC002010BD012010BDC04610B500F076
:4029C00065F8002801DA002010BD012010BDC0461C2101231B04984201D3000C10391B0A984201D3000A08391B09984201D30009043902A2105C40187047C04604030202AD
:402A0000010101010000000000000000F0B55F4656464D464446F0B41F035C00DB0F9A46194B0E034D00C90F8046360B6D0D8B4691463F0B640D9D4219D0134B9C421BD036
:402A40000123A54206D018003CBC90469946A246AB46F0BDBE42F6D1C845F4D1D34510D0002DF0D1304303005A1E9341EBE7310001230143E7D1E0E73A430123002AE2D181
:402A8000DEE70023DFE7C046FF070000F0B55F46444656464D46F0B41F033C0B2C4F0E034D00A3465C008446360B6D0DC90F9046640DDB0FBD422BD0254FBC422ED0002D09
:402AC0000ED130430700814678427841002C17D15F463A4314D14B460020002B0AD006E0002C02D15846024301D099421AD00123484218433CBC90469946A246AB46F0BDD8
:402B00000028F2D058425841012240421043F1E737000743D0D002204042EBE75F461743CDD0F8E7A542E2DC05DB5E45DFD808D000205E45DED24842484101234042184358
:402B4000D8E7C445D3D80020C445F4D3D2E7C046FF070000F0B55F464D4644465646F0B41C03240BA4462F4C0F034D005E00C90F80463F0B6D0D8B469146760DDB0FA542B8
:402B800020D0284CA64222D0002D12D1384344424441002E20D0002C0DD05C42634101245B421C4320003CBC90469946A246AB46F0BD002E17D05B4519D05B465C42012363
:402BC0001C43EFE7390002240143EBD1D9E7614602241143E6D1D7E761460A43DBD100240028DFD0E9E761460A43E4D1E5E7B54203DD01225C421443D4E7B542CDDB674516
:402C0000DBD809D000246745CCD259464C426141012449420C43C5E7C845CED80024C845F3D3BFE7FF07000003008218934202D019700133FAE77047F0B58BB014001D1E02
:402C4000129906DA802424061B191D0014002D2300E000230B702023149E03229E43462E07D03300453B59424B411099013ACB18109309AB049308AB0393139B00920293D5
:402C8000109B220001932B0000F0E6FD0700472E02D1119BDB072DD5109BFB180793462E14D13B78302B0CD10022002320002900FFF760FE002804D10123109A9B1A139A2B
:402CC0001360139B079A1B68D31807930022002320002900FFF74EFE3022002802D0079B099307E0099B0799994203D9591C09911A70F7E73800099B159ADB1B13600BB0A8
:402D0000F0BDF7B52B2307000C000270861C002901DA2D234C427B70092C1CDD6B46DD1D20000A2102F0B2FD013D3031297020000A2102F0C5FC04000928F1DC013D303459
:402D40002C706B4607333000AB4209D92B78013533700136F5E73023E4183370B01C7470C01BFEBDF0B595B00C000A920B931A9D099001F0EFFC036818000D9300F0CCFCCF
:402D80000023129323680E900C930C99277E2B680722C90501D59B1800E0073393431A0008322A601A685B68A264E3640122E56CA66C6B005B080F935242C04B30000F9959
:402DC00003F00EFB002819D10122BC4B524230000F99FFF7DFFD002810D10022002330002900FFF7CDFD002803D023002D2243331A70B34D472F0ED8B24D0CE032002B00E5
:402E00003000290003F0ECFA002800D19AE1AE4D472F00D8AD4D03230C9A236101339A432260002642E0672F00D193E1472F00D190E10C9A0021134312AA059211AA03922B
:402E4000232223600691019308A9636852180292009332002B0004970998FFF7EDFE20233A0005009A43472A00D18EE11199652F00D996E1200001393A0050301191FFF78E
:402E800040FF129A060083182361012A00DD85E12268D20700D581E1232308AA9B181B78002B03D023002D2243331A700B9B13AA009321000A9B099800F0A4F9431C02D130
:402EC000012040429BE12268530501D4236964E0652F00D8CCE0A06CE16C00220023FFF749FD00282CD00123794A0A9909980B9DA847431CE4D0119B129A934208DB2368A6
:402F0000DB0705D4236800259B0700D50FE113E10B9D0E9B0D9A0A990998A8470025431CCED0129B013B9D42ECDA220001231A320A9909980B9EB047431CC1D00135F0E77D
:402F4000119B002B2BDC0123614A0A9909980B9EB047431CB4D0119B002B05D1129B002B02D12368DB07CDD50B9E0E9B0D9A0A990998B0470026431CA2D0119B5B429E4222
:402F80000ADA220001231A320A9909980B9FB847431C95D00136F0E7129B2A00ACE0A36D129E9E4200DD1E00002E05DC00230C93F343DB170F9315E033002A000A990998AD
:402FC0000B9FB847431CF1D17AE7220001231A320A9909980B9FB847431C00D170E70C9B01330C930F9BA26D0C993340D31A9942EBDBAE18119B129A93420DDB2368DB077F
:403000000AD4129B119AED18AD1B9B1A9D4200DD1D00002D09DC11E00E9B0D9A0A9909980B9FB847431CECD14AE72B0032000A9909980B9EB047431C00D141E7EF43FB1795
:4030400000260C930AE0220001231A320A9909980B9FB847431C00D132E70136119A129B0C999B1A2A000A409B1A9E42EBDB49E7129B012B02DC01231A4245D001232A0057
:403080000A9909980B9FB847431C00D118E70E9B0D9A0A9909980B9FB847431C00D10FE7A06CE16C00220023FFF764FC002801D000251AE0129B6A1C013B26E0FFFFEF7FA4
:4030C000386A0010346A0010406A00103C6A0010446A0010220001231A320A9909980B9FB847431C00D1EBE60135129B013B9D42F0DB2200330050320A9909980B9DA84747
:40310000431C00D0FEE6DBE62A000A9909980B9DA847431CEDD1D3E62200012319320A9909980B9EB047431C00D1C9E60135E368139A9B1A9D42EFDB139BE06898425EDAF8
:4031400018005CE080236268DB00511C00D06AE6073202E0002A02D10122626069E60C9908A80B430021069112A9059111A90391232109182360019300922B000497029179
:4031800032000998FFF758FD0500119BDA1C02DB626893421CDD023FFFB267E6013323617AE6662F15D16368002909DD2161002B02D12268D2071ED50133591821611AE032
:4031C000002B03D101222168114213D09A1C11E06727119B129A934206DB22682361D20709D50133236106E00121002B01DC4918C91A8A182261119B0026A3654CE615B0E4
:40320000F0BDC046F7B5170001938A680B6900900C00934200DA130022003B6043321278002A01D001333B6023689B0602D53B6802333B60062523681D401ED0230043332A
:403240001B785A1E9341226892061CD53020E1184331087021005A1C45310978A2184332023311700FE022000123193201990098089EB047431C0ED00135E3683A689B1A50
:403280009D42F0DBDAE72200019943320098089DA847431C02D10120404220E006232068E1683A6803400025042B03D18D1AEB43DB171D40A3682269934201DD9B1AED1843
:4032C0000027BD420AD0220001231A3201990098089EB047431CDED00137F2E70020FEBDF0B58BB006920A0043320793059004920A7E0C00109B6E2A00D1ABE011D8632A0F
:4033000022D009D8002A00D1B5E0582A00D0C5E045310A70814A4FE0642A1DD0692A1BD0BCE0732A00D1AAE009D86F2A29D0702A00D0B3E0202209680A43226037E0752A14
:403340001FD0782A33D0A9E00E001A684236111D196013683370A4E021681A68080606D4490604D5111D19600023D55E02E0111D19601568002D3BDA2D23049A6D4213705F
:4033800036E021681A68080606D4490604D51568111D1960ADB202E0111D196015685F4B227E039308276F2A1DD00A271BE022007821453211705A4A19680392081D226876
:4033C00018600D68100602D4500600D5ADB2D30702D520231A4322601027002D03D1202322689A4322602300002243331A7002E00A274A4B03936368A360002B09DB0422AD
:40340000216891432160002D05D1049E002B11D07BE0002D79D0049E28003900FEF7F4FB039B013E5B5C280033703900FEF766FB051EF1D1082F09D12368DB0706D563684E
:403440002269934202DC3023013E3370049B9B1B23612BE009681A68080607D4490605D5111D19601368A28A1A8004E0111D1960136862691A600023049E236116E01A68FC
:40348000111D1960166800216268300001F0D4F9002801D0801B6060636803E0260042363270012323610023049A1370079B09AA00932100069B0598FFF7A4FE431C02D1CF
:4034C0000120404227E02369320006990598079DA847431CF4D0236800259B070FD4099BE068984217DA180015E022000123193206990598079EB047431CE1D00135E3687F
:40350000099A9B1A9D42F0DBE9E72600039B42361B7833708EE70BB0F0BDC046466A0010576A00100FB40B4B13B51C68002C05D0A369002B02D1200001F05CF805AB049AB0
:40354000A1682000019301F057FD16BC08BC04B01847C0464001000870B505000C00002804D08369002B01D101F044F80F4B9C4201D16C6808E00E4B9C4201D1AC6803E043
:403580000C4B9C4200D1EC682100280001F05CFE002807D16368013B636023685A1C2260187801E00120404270BDC046786A0010986A0010B86A0010F0B51D00514B85B0C0
:4035C0001E6804000F000092002E05D0B369002B02D1300001F00EF84B4B9C4201D1746808E04A4B9C4201D1B46803E0484B9C4200D1F468009B022B05D0012B00D97CE072
:40360000002D00DA79E02100300000F071FF616B002908D023004433994202D0300001F017FC002363630023A3616360A3891B0603D52169300001F00BFCA289354B134089
:40364000A381009B022B21D003AB02AA2100300001F084F8A3891843A081002D01D1029D01E0002F25D1280001F0DCF80195071E1AD1029B0193AB4202D10120404206E0FC
:40368000019801F0CFF8071E0ED1F6E700200222A3891343A3810023A3602300473323602361012363612AE08022A389019D1343A381B369002B02D1300000F09BFF009BDD
:4036C000012B03D1A389009A1A43A2810823A2892760134027616561181E0CD001231A40002310009A4204D06D42A360A561180005E0A56003E0A36001E00120404205B0BA
:40370000F0BDC04640010008786A0010986A0010B86A00105CF3FFFF0023C25C0133002AFBD1581E7047030030B5002A0DD00C7801335D1E013A2C700131002CF5D19A18A3
:403740009A4202D01C700133FAE730BDF0B503690C6989B00700059100269C4279DC0B00013C1433A50003935B1904930300143302935D19049B28681B68591C0193FEF77E
:40378000BDF90190B04233D0039B02989C460696634604CB9C46019B91B25943120C5A4389190B0CD3180793069A1E0C038889B29B1802685B1A110C6A46928B8A1A19146C
:4037C000521811149BB21204134308C0049B06916345DDD22B68002B0AD1029B043DAB4201D33C6104E02B68002BFAD1013CF4E70599380001F044FA002829DB0020019BE5
:4038000002990133039A019340CA0B881818B3B2C31A0868360C000C801B1D14451928149BB22D042B4308C1049B9342ECD2029AA300D3181A68002A0AD1029A043B9A4206
:4038400001D33C6104E01A68002AFAD1013CF4E7019E300009B0F0BDF0B516001F00446A9DB00490259D06960797002C08D1102000F0D8FF049B5862446084600460C46065
:40388000049B5B6A196800290BD05A68012393404A608B60049801F01BF80022049B5B6A1A60079B002B05DA01232B607B005B08079301E000232B60079CC84B220019934B
:4038C0001A409A4219D1C64B249A1360069AC54B002A02D1240300D1C34B269A1800002A01D100F07DFDD978DA1C002900D00532269918000A6000F073FD069E079F0022F1
:40390000002330003900FFF735F8051E0ED00123249A1360B54B269A1800002A01D100F05FFDB34A26990A6000F05AFD1AAB01931BAB009332003B00049801F027FA6300C5
:4039400005905B0D09D03A03AA4C120B1443AA4A300021009E1817951AE01A9B1B9A9E18A64BF318202B08DDA54A0698B218D0404022D31A9C40204303E020220698D31A38
:40398000984002F08FFD01239E4C013E0919179300229D4BFEF754FC9C4A9D4B02F0A6FA9C4A9D4B01F076FF040030000D0002F037FD9A4A9A4B02F099FA02000B002000D3
:4039C000290001F067FF04000D00FEF78DFF00220390002320002900FEF7D2FF00280DD0039802F01DFD02000B0020002900FEF7C1FF43424341039AD31A03930123169321
:403A0000039B162B11D88749DB00C91808684968069A079BFEF7C8FF002805D0039B013B03930023169300E016901A9B9E1B00230B93013E0C9604D50C9B5B420B93002366
:403A40000C93039B002B08DB039A0C9B944663440C9300231192089307E00B9B039A9B1A0B935342089300231193229B0125092B25D8052B02DD0025043B2293229B981E13
:403A8000032824D801F012FE060E0204012302E0012308E000231093239B002B20DD1F000A9321E00023239A1093039B9F187B1C0A930123FA18002A16DD130014E00127BB
:403AC00000237F42229310950A97123305E0012701237F4210930A9711330022239203E001273B000A972397049A546A00226260043211001431994204D8616852000131E0
:403B00006160F6E76168049800F0AAFE049B20605B6A1B680D930A9B0E2B00D981E1002D00D17EE1069B079C14931594039B002B31DD0F223B491340DB00CB185C681B68F5
:403B40000E930F94039B02241D11EB060AD514981599354B15401A6A5B6AFEF75BF8069007910134304E002D0ED001231D4208D00E980F99E4183268736802F0B7F90E9039
:403B80000F916D100836EEE70E9A0F9B06980799FEF740F84CE0039B02245D42002D49D0149815990F231F4A2B40DB00D3181A685B6802F09BF90023069007911A4E2D115B
:403BC000002D33D00122154205D0A4183268736802F08CF901236D100836F1E70000F07F0F270000716A0010686A0010446A0010456A00100000F03F01FCFFFF3204000098
:403C000012040000000010FE0000F83F61436F63A787D23FB3C8608B288AC63FFB799F501344D33FE06A0010B86B0010002B01D006900791169B002B1DD0069D079E0022A1
:403C4000C74B28003100FEF79BFE002813D00A9B002B10D0002F00DCDFE0039B3100013B0E930022BF4B280002F040F90134069007913E0002E0039B0A9E0E93200002F01F
:403C8000CFFB069A079B02F031F90022B64B01F001FEB64A12901391129C139D9446139B634418931D00002E1CD1069807990022AF4BFEF7C5FA2200189B06900791FEF70D
:403CC00073FE002800D054E2AA481399844661440B00069807992200FEF752FE002800D03DE29AE0109A731EA349DB00002A49D0CB181A685B680020A049FDF78BFF2B00B8
:403D00002200FEF79DFA129013910D9D06980799FEF7EAFD040002F083FB02000B0006980799FEF78DFA01356B1E30341C70129A139B06900791FEF723FE002800D02EE33A
:403D4000069A079B00208649FEF77AFA129A139BFEF716FE002800D0C7E00D9BEB1AB3425BDA1298139900227E4B02F0BFF8002212901391069807997A4B02F0B7F8069044
:403D80000791C3E7C9182200086849682B0002F0ADF80D9C12901391A51906980799FEF7A3FD060002F03CFB02000B0006980799FEF746FA3036267001340690079100222B
:403DC000A54222D16D4B1298139901F063FD02000B0006980799FEF7E7FD002800D084E0129A139B00206549FEF72AFA02000B0006980799FEF7C4FD00280ED06B1E1A78A7
:403E0000302A00D0CBE21D00F8E706980799554B02F06CF806900791BFE7149B159C069307941B9B002B00DA81E0039A0E2A00DD7DE0D300504AD3185C681B680893099411
:403E4000239B002B15DA0A9B002B12DC00D088E1089809990022464B02F048F8069A079BFEF7ACFD0A9B08931E00002800D07BE182E10D9D069E079F089A099B30003900B4
:403E8000FDF7C8FEFEF730FD040002F0C9FA089A099B02F02BF802000B0030003900FEF7CFF9220001356B1E30321A700D9B0A9AEB1A9A422ED102000B0001F0EBFC0600FB
:403EC0000F0002000B0008980999FEF759FD00280FD10898099932003B00FEF74BFD002800D15EE2E30704D45BE20E9B039300E01D006B1E1A78392A08D10D9A9A42F7D10F
:403F0000039A0D990132039230220A701A7801321A7046E20022134B01F0E8FF0022002306000F00FEF726FD0028A5D039E2109A002A44D0229A012A0BDC179A002A02D04E
:403F40000F4A9B1802E036231A9A9B1A089D0B9C29E00A9B5D1E089BAB4213DB5D1B18E00000F03F0000244000001C400000C0FC000014400000C07CE06A00100000E03F7A
:403F800033040000089B0895EA1A0025119B9B1811930A9B002B04DA0B9B0A9A9C1A002301E00B9C0A9B0B9A0121D2180B920C9A0498D3180C9300F02BFD060002E0089DA1
:403FC0000B9C109E002C0ED00C9B002B0BDD0C9A2300944200DD13000B9AE41AD21A0B920C9AD31A0C93089B002B20DD109B002B17D0002D11D031002A00049800F09AFDA7
:40400000059A01000600049800F00BFD05990E90049800F05DFC0E9B0593089B5A1B06D000E0089A0599049800F084FD05900121049800F0EDFC119B0890002B00D1C0E1BC
:404040001A000100049800F075FD229B0890012B17DC0025069BAB420ED1079B1B03AB420AD1199B079A134206D00B9B013501330B930C9B01330C93119B0120002B0DD01C
:4040800000E00025089B089A1B690E9303339B00D318586800F072FC2023181A0C9BC0181F23184009D001331B1A042B02DD1C23181A03E0042B08D018001C300B9B241838
:4040C0001B180B930C9B1B180C930B9B002B05DD1A000599049800F081FD05900C9B002B05DD1A000899049800F078FD0890169B002B1DD00899059800F0C2FD002817DA95
:40410000039B0A22013B039305990023049800F0F8FB109B0590002B00D159E1310000230A22049800F0EDFB0600002F37DC33E00A9B0A9F002B2ADC229B022B27DD002F42
:4041400012D108993B000522049800F0DAFB08900100059800F094FD00280DDC04E0089602E000231E000893239B0D9DDB4303930AE00E9B089603930D9B0D9A5D1C3123F1
:404180001370039B013303930A960026F3E0109B002B04D10D9DB5E0229B022BCFDC002C05DD31002200049800F018FD06000A96002D12D07168049800F052FB310004005E
:4041C00033690C319A1C92000C3000F040FB01222100049800F002FD0A900D9B7D1E0B935B190E9308990598FFF7B0FA310010900400059800F044FD0A9A05000899049871
:4042000000F059FD01230C93C36830340700002B04D10100059800F033FD0C903900049800F056FB0C9B229A134308D1069A0133134204D1392C2AD0002D1CDC1DE0002D31
:4042400006DB229B1D431BD10123069A134217D10C9B002B11DD05990122049800F0BEFC0899059000F00CFD002802DC05D1E30703D5392C0BD0109C31340B9B5D1C0FE060
:404280000B9B5F1C0C9B002B0CDD392C05D10B9B0B9A5D1C3923137057E03D000B9B01341C7068E00B9B0E9A3D001C7093423CD000230A220599049800F023FB0A9B059058
:4042C0009E4208D1310000230A22049800F019FB06000A900DE0310000230A22049800F010FB002306000A220A99049800F009FB0A900B9776E700230A220599049800F0A7
:4043000000FB059008990598FFF720FA0D9B3030287001350400EB1ABB42ECDB3D1E00DC01250A9600260D9B5D1905990122049800F054FC0899059000F0A2FC002804DC52
:4043400013D1E30701D410E01D006B1E1A78392A08D10D9A9A42F7D1039B013303933123137008E001321A7005E06B1E1A78302A01D11D00F9E70899049800F0A9FA0A9B69
:40438000002B0ED0002E05D09E4203D03100049800F09EFA0A99049800F09AFA01E00E9B03930498059900F093FA00232B70039B249A01331360269B0D98002B10D01D60A0
:4043C0000EE0229B012B00DC43E6119D012065E6002F00DDDEE6229B022B00DCDAE6AEE61DB0F0BDF7B58A8905000C0013075AD44B68002B02DC0B6C002B19DDE76A002F77
:4044000016D000232E682B6080235B011A4001D0606D14E00123216A2800B847431C0ED12B68002B0BD01D2B01D0162B02D12E6000205AE04022A3891343A38155E0A3893C
:404440005B0706D56368C01A636B002B01D0236CC01A00230200216A2800E76AB847A389421C06D129681D293AD8204ACA40D20736D50022626022692260DB0405D5431C54
:4044800002D12B68002B00D16065616B2E600029CED023004433994202D0280000F0D8FC0020606321E00F69002FC1D00B680F60DB1B01930023920700D14B69A36003E0D2
:4044C000019B3F181B1A0193019B002BB0DD019B3A00216A2800A66AB0470028F0DCA389402201201343A3814042FEBD010040200B6970B505000C00002B01D100201CE09E
:40450000002804D08369002B01D100F073F80B4B9C4201D16C6808E0094B9C4201D1AC6803E0084B9C4200D1EC680C22A35E002BE4D021002800FFF755FF70BD786A001068
:40454000986A0010B86A001010B5011E05D1054B0549186800F0DCF803E0044B1868FFF7C7FF10BD306A0010F14400104001000810B5024900F0CCF810BDC046F14400100C
:40458000002310B5040003604360836081814366C281036143618361190008225C30FEF743FB054B24626362044BA362044BE362044B236310BDC04691530010B95300100F
:4045C000F15300101D54001070B568254B1E5D430E002900743100F087FC041E08D000212A00016046600C30A0606832FEF71CFB200070BD836913B50400002B28D183649E
:40460000C3640365134B144A1B6882620193984201D101238361200000F020F86060200000F01CF8A060200000F018F80022E06004216068FFF7A4FF01220921A068FFF721
:404640009FFF02221221E068FFF79AFF0123A36113BDC046306A001071450010F8B51D4B06001D68AB69002B02D12800FFF7C2FF4835AC686B68013B05D40C22A75E002F94
:4046800010D06834F7E72B68002B01D02D68F0E704213000FFF798FF28600028F6D10C23336016E0012320005B42E3810233A38167662760A760676027616761A7615C30F0
:4046C00008223900FEF7B0FA20006763A763A764E764F8BD306A0010F7B54830040000260191002C12D0A5686768013F0CD4AB89012B07D90E22AB5E013303D02800019BE1
:40470000984706436835F0E72468EAE73000FEBDF7B504000700002601914834002C16D06368A5680093009B013B00930DD4AB89012B08D90E22AB5E013304D029003800FF
:40474000019B984706436835EDE72468E6E73000FEBD0000004870474401000870B50E001D000E23C95E90B01400002906DA00232B60B3891B060FD540230FE001AA00F093
:4047800047FF0028F3DBF023029A1B021340054A9B185A4253412B608023DB000020236010B070BD00E0FFFFF7B502268B8905000C00334210D101AB6A46FFF7CFFF0099ED
:4047C0000700280000F090FB00280CD10C22A35E9A0523D43343A3812300473323602361012363611AE080220D4BAB62A38920601343A381009B20616361019B002B0AD077
:404800000E23E15E280000F015FF002803D00122A3891343A381A3891F43A781F7BDC0467145001010B5034B0100186800F05CFB10BDC04640010008C9B28218904204D030
:4048400003788B4202D00130F8E700207047002310B59A4203D0CC5CC4540133F9E710BD70B5466A04000D00002E07D11020FFF7D9FF6062466086600660C660666AF36890
:40488000002B09D0636AAA00DB689B18186800280ED002681A6017E021220421200000F0C9FA636AF060DB68002BEBD100200EE001210E00AE40721D9200200000F0BAFA93
:4048C0000028F3D04560866000230361C36070BD70B5456A06000C00002D07D11020FFF7A1FF7062456085600560C560002C07D0726A6368D2689B00D3181A6822601C60EA
:4049000070BDF7B5070008000C000D691E00002101921430019A0388013153439B190668360C56431A0C9446B4446246160C120494469BB2634408C08D42EBDC002E1BD0EF
:40494000A3689D4212DB63683800591CFFF788FF2100236901909A1C92000C310C30FFF776FF21003800FFF7B3FF019C2B1D9B00E31801355E6025612000FEBD002203000B
:40498000010C914201D103041032190E01D108321B02190F01D104321B01990F01D102329B001000002B03DB20205B0000D5501C70470722036810B501001A400CD00124B6
:4049C0000020234223D10222134203D0E34020000B601CE09B0818E098B2002801D110221B0CD8B2002801D108321B0A180701D104321B09980701D102329B08D80704D4E3
:404A00005B082020002B02D0013210000B6010BD10B50C000121FFF723FF01234461036110BDF0B50B691400126989B00D00934201DA25000C002F692669AA68BB196968A9
:404A40000193934200DD0131FFF70AFF0200BB1914329B00D3189C46002113000290634501D202C3FBE71435BF00EB191434B6000593A31903950793079B9C4251D2208878
:404A800000281ED015000026039F08CF069504936B461B8A434319002B88CB1804999B19090C41432E68360C89191E0C89190E0C9BB209040B4308C5059BBB42E5D8069BB5
:404AC0005E6023681D0C1FD0002110001368039F04913E8801686E43090C7118049E9BB289190E043343036008CF86881B0C6B43090C9B195B18190C049105990690043060
:404B0000B942E6D806994B6004340432B4E704235B429C4463461B68002B05D1019B013B0193019B002BF2DC029B019A18001A6109B0F0BD0323F7B5134005000E0014001A
:404B4000002B08D02349013B9A00525800233100FFF7D7FE0600A310019338D06C6A002C07D11020FFF75EFE6862446084600460C4606F6ABC68002C10D117492800FFF714
:404B800047FF0023B8600400036007E0019B5B1001931CD02068002810D004000122019B1342F3D0310022002800FFF73AFF070031002800FFF78CFE3E00E7E7220021005B
:404BC0002800FFF72EFF002320600360E5E73000FEBDC046A86B001071020000F0B50C0017002369551185B0EB180193013300934968A3680290009A934202DA01315B009E
:404C0000F9E70298FFF72CFE00230200060019001432AB4203DA980011500133F9E7EB43DB171D402300AD0055192269143392009A1894461F22174014D00132D21B03929D
:404C4000002219682800B9400A4304C504CB0399CA409C45F5D84260002A07D0019B0233009303E004CB04C59C45FBD8009B0298013B33612100FFF72BFE300005B0F0BD2A
:404C800003690A6910B59B1A0400181E12D1930014341431E218C918043A043913680868834204D083429B410120184302E09442F2D3002010BDF0B50C0085B007001100FF
:404CC00020001500FFF7DCFF061E07D101003800FFF7C6FD01234661036155E000230193984204DA23002C001D000123019361683800FFF7B5FD019B26692F00C36014345B
:404D0000B300E318020002932B69002514379B00FB180393143208CC69469C4608CF0432009363468B808B885D19009B9BB2EB1A65460193009B2D0C190C019B691A1D14E9
:404D4000131F9C466B4649199B880D1409040B4361460B60039BBB42DDD8029913008C420BD202CC8BB25B191D14090C49190D149BB209040B4308C2EFE7043B1A68002A37
:404D800001D1013EF9E7066105B0F0BDF7B51D000121089F1400FFF763FD2B036D0006001B0B6D0D02D08022520313430193002C18D068460094FFF7FCFD009C002809D067
:404DC000019B20211A00091A8A40C34022437261019300E07461019CB461631E9C410134346107E001A8FFF7E4FD0124019B346173612030002D06D00B4BED1835232D1895
:404E00003D60181A0BE0094BC018094B3860E3189B00F3185869FFF7B1FD6401201A099B18603000FEBDC046CDFBFFFFCEFBFFFFFFFFFF3F4A4370B51100140000F054F812
:404E4000051E03D022000021FDF7EEFE280070BD70B50500002944D00C1F2368002B00DAE418280000F00CFC1E4A13681100002B02D16360146031E0A3420DD92268A0183F
:404E8000834203D118685B688218226063600C6024E0A24203D813005A68002AF9D11E689819A0420BD12168711858181960824214D110685268411819605A600EE0A04218
:404EC00002D90C232B6009E021686018824203D1106852684118216062605C60280000F0D0FB70BDC0060008032370B5CD1C9D43083506000C2D01D20C2501E0002D01DBB5
:404F0000A94202D90C23336048E0300000F0B8FB234B1C681A002100002913D00B685B1B0DD40B2B02D90B60CC181EE08C4202D1636813601AE04B6863600C0016E00C0030
:404F40004968E9E7174C2368002B03D1300000F00DFA20602900300000F008FA431C18D00323C41C9C43A0420DD12560300000F088FB200007220B30231D9043C31A0ED06B
:404F80005A42E2500BE0211A300000F0EFF9431CEBD10C233000336000F073FB002070BDC0060008BC060008936810B5013B9360002B05DA9469A34208DBCBB20A2B05D060
:404FC0001368581C10601970C8B201E000F02CFA10BDF8B506000F001400D518AC4208D021783A003000FFF7DFFF0134431CF5D100E00020F8BD0000F0B59FB006000F0013
:4050000002920593002804D08369002B01D1FFF7F1FA7F4B9F4201D1776808E07D4B9F4201D1B76803E07C4B9F4200D1F768BB891B070AD53B69002B07D0002306AD6B6158
:4050400020336B761033AB763DE03900300000F057FA0028F1D001204042D6E0059A111D12680591002A00DA7FE00992013423782E2B00D18DE0217803226848FFF7DCFB12
:40508000002807D0654B2A68C01A4023834013432B6001342178631C0622614802932976FFF7CAFB002800D19DE05E4B002B00D090E00722059B07339343083305936B69B7
:4050C000039A9B186B61029C2378002B04D1029BE31A049312D003E0252BF8D00134F3E7049B029A39003000FFF773FF431C00D186E06A69049B944663446B612378002B17
:405100007ED00122002352426A6002A95432521801342B60EB60AB601370AB65217805224148FFF789FB002808D03F4B2A68C01A0123834013432B600134EFE72B68DA063A
:4051400004D55322202102A8121811701A0704D553222B2102A81218117022782A2A00D17CE7099B00200A2105E05242EA60022213432B607AE72278303A092A04D84B4360
:4051800001349B180120F6E7002800D16FE709936DE763782A2B0AD1059B02341A1D1B680592002B01DA01235B42079363E700230A201A0001346B6021783039092904D876
:4051C0004243013452180123F6E7002B00D152E7079250E705AB00933A00144B29003000FDF7C0FD07E005AB00933A000F4B29003000FEF775F80390039B013300D05EE7AC
:40520000BB895B0600D526E70B981FB0F0BDC046786A0010986A0010B86A0010E66B0010EA6B0010652D0010E06B0010D34F0010092310B5828913400022092B02D1FFF729
:4052400083F90200100010BDF8B505000C00002804D08369002B01D1FFF7CCF93E4B9C4201D16C6808E03D4B9C4201D1AC6803E03B4B9C4200D1EC68002363600C23E25E73
:4052800093B2990664D459071AD4D90605D409232B6037331A43A2815AE0082633420AD021002800FFF724F9002851D1A389A060B343A381A0610422A3891343A38112E0C9
:4052C000616B00290FD023004433994202D02800FFF7BEFD0020236C60636360834202D0E36B236036E02369002B03D121002800FFF75AFA0C23E75EBEB2B3070FD0012348
:40530000A381184B18491868FFF7E6F90923A7813340092B03D121002800FFF763F823692269236028006369216A656AA84702006060002082420DDCA389824204D120225A
:405340001343A381013805E0402213436060A38101204042F8BDC046786A0010986A0010B86A0010306A001031520010002370B5064C05000800236001F0ECF8431C03D1F6
:405380002368002B00D02B6070BDC0460007000870B50C000E25495F00F074F9002803DB636D1B18636503E0A289024B1340A38170BDC046FFEFFFFFF8B51F008B8905008A
:4053C0000C001600DB0505D50E23C95E0022022300F042F9A289054B28001340A38132000E23E15E3B0000F077F8F8BDFFEFFFFF70B50C000E25495F00F02EF9A389421C63
:4054000003D1054A1340A38104E0802252011343A381606570BDC046FFEFFFFF10B50E23C95E00F0E3F810BDF8B505000F001400002804D08369002B01D1FFF7DBF8234BF5
:405440009C4201D16C6808E0214B9C4201D1AC6803E0204B9C4200D1EC68A369A360A3891B070AD52369002B07D023682269FEB2981A636998420FDB08E02100280000F04C
:405480003FF80028F1D0012040421DE021002800FFF72EF80028F6D1A3680130013BA36023685A1C22601F706369984205D0A3893000DB0708D50A2E06D121002800FFF767
:4054C00017F80028DFD13000F8BDC046786A0010986A0010B86A001070B50500080011000022064C22601A00FCF7E0FA431C03D12368002B00D02B6070BDC04600070008FE
:40550000364B70B51D6806000C00002D05D0AB69002B02D12800FFF76DF8314B9C4201D16C6808E02F4B9C4201D1AC6803E02E4B9C4200D1EC680C22A35E9AB2110723D488
:40554000D10607D409220120326037321343A381404242E0530713D5616B002908D023004433994202D03000FFF772FC002363632422A3899343A3810023636023692360E0
:405580000822A3891343A3812369002B0BD1A0238022A1899B0092000B40934203D021003000FFF701F90123A289134005D00023A36063695B42A36103E0920700D4636972
:4055C000A36000202369834207D10C22A35E1A0603D540221343A381013870BD40010008786A0010986A0010B86A0010002370B5064C05000800236000F08CFF431C03D19F
:405600002368002B00D02B6070BDC04600070008002370B5064C050008001100236000F081FF431C03D12368002B00D02B6070BD00070008002370B5064C050008002360C2
:4056400000F078FF431C03D12368002B00D02B6070BDC0460007000870B50500080011000022064C22601A0000F06CFF431C03D12368002B00D02B6070BDC0460007000809
:405680007047704770B50500080011000022064C22601A00FCF71CFA431C03D12368002B00D02B6070BDC0460007000802B4714649084900095C49008E4402BC7047C04698
:4056C00003460B437FD4002243088B4274D303098B425FD3030A8B4244D3030B8B4228D3030C8B420DD3FF22090212BA030C8B4202D31212090265D0030B8B4219D300E0FD
:40570000090AC30B8B4201D3CB03C01A5241830B8B4201D38B03C01A5241430B8B4201D34B03C01A5241030B8B4201D30B03C01A5241C30A8B4201D3CB02C01A5241830A79
:405740008B4201D38B02C01A5241430A8B4201D34B02C01A5241030A8B4201D30B02C01A5241CDD2C3098B4201D3CB01C01A524183098B4201D38B01C01A524143098B423A
:4057800001D34B01C01A524103098B4201D30B01C01A5241C3088B4201D3CB00C01A524183088B4201D38B00C01A524143088B4201D34B00C01A5241411A00D201465241C3
:4057C000104670475DE0CA0F00D04942031000D34042534000229C4603098B422DD3030A8B4212D3FC22890112BA030A8B420CD3890192118B4208D3890192118B4204D3C1
:4058000089013AD0921100E08909C3098B4201D3CB01C01A524183098B4201D38B01C01A524143098B4201D34B01C01A524103098B4201D30B01C01A5241C3088B4201D3BB
:40584000CB00C01A524183088B4201D38B00C01A5241D9D243088B4201D34B00C01A5241411A00D20146634652415B10104601D34042002B00D54942704763465B1000D38D
:40588000404201B50020FCF7C3F902BD0029F8D016E77047F8B556465F464D464446F0B40F00FD0FAA4609037C002E005F00450F490A7F0D2943C5001803BC46400A570F7D
:4058C000640DDB0F3843D2009A4500D1AAE06646A61B002E00DCFFE06346002B39D10300134300D0D9E06B0709D00F232B40042B05D02B1DAB42AD416D4249191D000B0266
:4059000000D482E0CA4B01349C4200D1FEE00A005646C84BED081A405007640552020543120B640D002112030B0D1B056405120B1A436308C04CF60714401C436400640820
:405940003443280021003CBC90469946A246AB46F8BDB74B9C42C6D080231B041843382E00DDEBE01F2E00DD1EE120239B1B9C4603006746BB40984613004746F3403B43AD
:405980006746BA40571EBA4113430200F240EB1A9D42B6411D008A1A7642911B0B0231D54A02560A002E00D1B4E03000FDF710F80300083B1F2B00DDB5E020222900D21A6F
:4059C000D1409E400A009D4032439C4200DDB1E01C1B631C1F2B00DDD5E0202114002800C91A8C40D8408D400443DA40681E854111002543002476E74146314300D134E2E4
:405A0000310045466B0700D06FE756464807ED08C9080543864B9C4235D00A036405120B640D7FE76346E31A9B46002B00DC8BE06746002F3CD07E4FBC4200D153E780279D
:405A40003F0438435B46382B00DCF7E00243501E82410020D2B253194218AB4289411D00494289180B02CDD5714B01349C4200D13DE101206F4A6B080A4028401843D5072E
:405A8000054351082FE72B000B4300D1CBE180231B030B431A03120B44E7013E002E6DD1AE1AB5429B41091A5B42C91A350075E70700174300D116E701235B429C46E34452
:405AC0005B46002B00D0E0E0AA18AA429B4109185B4259181500C5E7002E75D1661C7605760D012E00DCF3E0AE1AB0464545BF410E1A7F42F61B370200D48FE0551BAA42E4
:405B0000B641411A76428E1B9A464BE756460022002507E72800FCF75BFF20300300083B1F2B00DC49E72A002838824000259C4200DC4DE73F49E41A1140D4E60243501ECB
:405B40008241D3B2002222E7002B00D0F3E0631C9C465B055B0D012B00DC9FE0344B9C4500D1C3E0AA180918AA42804140424118CD075208154349086446B4E62C4B9C4285
:405B800000D0ECE6AFE611001F3CE1400C00202B00D17FE04021CB1A9A4015436A1E95410021254300242DE733000700203BDF403B00202E70D04027BE1BB0400243501EA3
:405BC000824113430022E2E6002C4FD0184CA44500D1ABE08024240476422143382E00DDDFE01F2E00DD43E12027BC1BA1460C004F46BC40A0462C004746F4403C434F46ED
:405C0000BD406F1EBD41F1402C43151BAA429241411A5242891A64469A46BFE641464546314300D0BEE6002600240025F2E6C046FF070000FFFF7FFFFFFF0F801F2B59DCB7
:405C40002027FF1ABC46070063469F405B46B9461700DF40B8464F4643461F4363469A40531E9A415B463A43D840F4E60C002C435CD0F643002E55D1551BAA42A441411A30
:405C80006442091B9A46644688E6964FBC4200D0D8E628E6002280E700208FE70B002B43002C00D0C2E0002B00D101E10300134300D118E6AB18AB42B6410918764271185E
:405CC0000A0200D409E1884A1D00114064460AE6002C5BD10E002E4300D08AE00100114300D1C2E0010015009A46FCE56446002100258FE620235B429C46DC446346070059
:405D0000DF405B46BC46202B00D1ACE040235F46DB1B98400243501E8241634613431A00002098E66F4CA44500D057E70100150064469A46D7E5002C39D10C002C436ED0F9
:405D4000DB43002B1AD0674CA44568D0382B00DDA4E01F2B00DDAEE020240F00E41AA740B9462F00DF40B846A3464F46444627435C46A5406C1EA541D9403D43AD18954282
:405D80009B4109185B42591864466BE60C002C4315D1010011437BD0010015009A46514CA1E50D43691E8D410021ECB22DE74D4CA44534D0802424045B422143C6E7040047
:405DC00014434ED0ED084C072C438025C9082D03294208D0C6082E4205D1D208410711430C009A463100620FC900E50011433D4C79E50600164300D175E5AE1AB0464545BB
:405E0000BF410E1A7F42F61B370200D4F4E5551BAA42B641411A7642891B9A4663E50100150064465FE5002200257BE5002B3BD00300134315D0ED084B072B438025C90806
:405E40002D03294207D0C4082C4204D141070B002100D2081343C9005A0F1143DD00214C41E5204C3FE5002054E700260025D1E534000F00203CE7403C00202E2BD0402769
:405E8000BE1BB1400D43691E8D4100212C43BCE6802100260903134C0025BBE50D43691E8D410021EDB269E7010015000D4C1AE50100150017E51C000F00203CE7403C002B
:405EC000202B0CD04027FB1A99400D43691E8D410021254352E70021D4E71D0092E50021F3E7C046FF070000FFFF7FFFF0B55F4656464D464446F0B40D0399464E002B0BB2
:405F000087B00700924680469B46760DCC0F002E69D06D4B9E4235D05B468022DD001204430F13432B439B46C3009846674B00279C460023664401934A4615035000D20F7F
:405F400053462D0B400D914600D176E05E4A90426CD080225B0F120413435C4AED0094461D4353460022DB00604449463618701C6140029017430F2F00D9AFE05448BF00D9
:405F8000C759BF465B461F4300D088E000239B469846023308270193CEE74946022A6AD0032A00D109E2012A00D0BBE111400022002300259046CCB200212D030A0D1205EF
:405FC0002D0B1543434A1B0515401D436D00E4076D0825434046290007B03CBC90469946A246AB46F0BD034352D05B46002B00D18AE15846FCF7ECFC03000B3B1C2B00DD8B
:406000007BE11D22D31A3A0001005D46DA4008398D4013008F402B439B46B8462E4B00279C46002360444642019385E752462A432CD100250023022297E752462A4321D0F0
:40604000002D00D154E12800FCF7C2FC03000B3B1C2B00DD46E11D21CB1A51460200D9405346083A954093400D431B4A944660444042002279E7012400220C40124B0025DC
:40608000904699E70025002301226EE703226CE700239B4698460133042701934CE703230C27019348E700238025984600242D03054B81E75D464346019A6FE75D46434633
:4060C0002100019A6AE7C046FF07000001FCFFFFF46B0010FFFF0F80F30300004246120C91461A0C9446424617044A461B041B0C5A43604690464A46424310000392624629
:406100001C003F0C7A437C4342440192220C9246019A5244904506D98246802040028046C24450460390100C049048462404240C1204121905922A0C2D042D0C68432C00F4
:40614000824648467C4350438146200C8046574357444744BA4503D9802040028046C144380C3F04B84648442404240C01900498A044404404905846000C814658460404CD
:40618000200C8246070048465F434C464343604660436446834650464443380C8446E4186444A34203D980235B029C46E34448463F04230C3F0C2404E419574668436F43DD
:4061C00084464D46504655434243380C814662444A445B44944503D9802040028446654403983F04834604983F0C8446E344C3458041404282461004844601986744844629
:406200006744A344BC46A345A4419946D44464428742BF41D4458041E144A04699459B417F424042C8440743120CBA18A045A4415F423B0064422343D71843467D19DB0DC7
:406240006D021D435B465A02059B1A43531E9A415B46DB0D1A4343465B021343EA0107D501225C0813402343EA07029E13436D08574AB218002A4BDD580709D00F20184008
:40628000042805D0181D98429B415B42ED180300E80104D54F4A15408022D200B2184E48824200DDE7E60124DB08680718436D02530580462D0B5B0D0C407DE6802259466C
:4062C0001203114208D0154206D115432D0398462D0B4C46414B6FE65D4615432D032D0B3E4B69E603005546283B9D400023BCE65046FCF76DFB2030A8E60300283B9F402D
:406300000023BB46984689E6FCF762FB203073E60124A61A382E07DD00220C4000230025904649E6029EA3E71F2E20DC20222C001800921BF040944093400443581E83410B
:406340001C43F540630709D00F232340042B05D023001C1D9C4292415242AD182B021FD5012400220C4001230025904624E61F202C004042821AD440202E1CD04022961B80
:40638000B5402B43581E83410720234318400025002809D00F2200251A401C00042AD8D1230068076D022D0B0124DB08034398460C40002300E60025E3E78022012412030D
:4063C00015432D0398462D0B0C40044BF4E5C046FF030000FFFFFFFEFE070000FF07000070B50E4E0C031D0349005B00240B490D2D0B5B0DB14204D0084900208B4208D027
:4064000070BD04430120002CFAD1044900208B42F6D115432800451EA841F1E7FF07000070B5002830D0C317C4185C40C50F2000FCF7CEFA174B184A1B1AD21A1F2A18DDB4
:40644000164AD21A9440002224035B05240B5B0D0021100024030A0D1205240B1443104A1B0514401C436400ED0764082C43210070BD210091400A000B21081AC4405B0554
:406480002403240B5B0DE3E70025002300240022DEE7C0461E0400003304000013040000FFFF0F8070B5051E28D0FCF791FA154B154A1B1AD21A1F2A16DD2C00134A002576
:4064C000D21A94405A052403240B520D002124030B0D240B1B0523430D4C1205234013435B002800590870BD0B212C00081AC440954024035A05240B520DE7E700220024FE
:40650000E4E7C0461E0400003304000013040000FFFF0F8058220120014B40421A6070470007000858220120014B40421A607047000700085822024B00201A607047C0461D
:406540000007000858220120014B40421A60704700070008044A1368002B03D01818106018007047014BF9E7C406000808070008F8B5C046F8BC08BC9E467047F8B5C0469F
:40658000F8BC08BC9E46704725632E00030000000100000001000000000000000503600004000000010000000000000001000000060460000800000078060008E1040010B2
:4065C000F4010000140004010A000905080000006301000003000000000000000000000068000000000000000000000000000000121200000000000000000000000000007A
:4066000000000000000000BA0000000000000000000000000000000000001D1D000000000C0000000800000000020000000000000000000000000000000000000000000050
:4066400000000000000000000B00000000000000000000000000000000000000E8070010F4070010000800100C0800101808001024080010300800103C0800106808001041
:40668000720800107C08001086080010900800109A080010A4080010AE08001047656E6572617465645F536F757263655C50536F43365C70646C5C647269766572735C7039
:4066C00065726970686572616C5C737973696E745C63795F737973696E742E630000000047656E6572617465645F536F757263655C50536F43365C70646C5C6472697665AE
:4067000072735C7065726970686572616C5C6970635C63795F6970635F6472762E68000047656E6572617465645F536F757263655C50536F43365C70646C5C6472697665E8
:4067400072735C7065726970686572616C5C6970635C63795F6970635F6472762E63000047656E6572617465645F536F757263655C50536F43365C70646C5C6472697665AD
:4067800072732F7065726970686572616C2F6970632F63795F6970635F6472762E68000047656E6572617465645F536F757263655C50536F43365C70646C5C6472697665EF
:4067C00072735C7065726970686572616C5C6970635C63795F6970635F706970652E630047656E6572617465645F536F757263655C50536F43365C70646C5C6472697665CB
:4068000072735C7065726970686572616C5C737973636C6B5C63795F737973636C6B2E630000000047656E6572617465645F536F757263655C50536F43365C70646C5C6493
:406840007269766572735C7065726970686572616C5C737973636C6B5C63795F737973636C6B2E680000000047656E6572617465645F536F757263655C50536F43365C7028
:40688000646C5C647269766572735C7065726970686572616C5C7363625C63795F7363625F756172742E680047656E6572617465645F536F757263655C50536F43365C70FF
:4068C000646C5C647269766572735C7065726970686572616C5C7363625C63795F7363625F636F6D6D6F6E2E6800000047656E6572617465645F536F757263655C50536F37
:4069000043365C70646C5C647269766572735C7065726970686572616C5C7363625C63795F7363625F756172742E630047656E6572617465645F536F757263655C50536F83
:4069400043365C70646C5C647269766572735C7065726970686572616C5C6770696F5C63795F6770696F2E630000000047656E6572617465645F536F757263655C50536F70
:4069800043365C70646C5C647269766572735C7065726970686572616C5C6770696F5C63795F6770696F2E680000000047656E6572617465645F536F757263655C50536F2B
:4069C00043365C70646C5C647269766572735C7065726970686572616C5C737973706D5C63795F737973706D2E630000041E0010D21C0010D81D0010C81C0010D81D001075
:406A0000E21D0010D81D0010C81C0010D21C0010D21C0010E21D0010C81C0010BE1C0010BE1C0010BE1C00103420001043000000E0000008494E4600696E66004E414E000B
:406A40006E616E00300030313233343536373839414243444546003031323334353637383961626364656600496E66696E697479004E614E0000000000000000000000005E
:406A800000000000000000000000000000000000000000000000000000000000000000000000000000000000000000000000000000000000000000000000000000000000D6
:406AC000000000000000000000000000000000000000000000000000504F534958002E00000000000000F03F000000000000244000000000000059400000000000408F409A
:406B0000000000000088C34000000000006AF8400000000080842E4100000000D01263410000000084D797410000000065CDCD41000000205FA00242000000E8764837423A
:406B4000000000A2941A6D42000040E59C30A2420000901EC4BCD64200003426F56B0C430080E03779C3414300A0D8855734764300C84E676DC1AB43003D9160E458E14333
:406B8000408CB5781DAF154450EFE2D6E41A4B4492D54D06CFF08044F64AE1C7022DB544B49DD9794378EA4405000000190000007D000000000000000080E03779C3414368
:406BC000176E05B5B5B89346F5F93FE9034F384D321D30F94877825A3CBF737FDD4F1575232D302B2000686C4C0065666745464700000000DC6000109C5F00109C5F00101C
:406C00009A5F0010B4600010B4600010A66000109A5F0010B4600010A6600010B46000109A5F0010BC600010BC600010BC600010BC620010000000000000001000000008B3
:406C4000C0000000586C0010C0000008F0030000EC0400081802000000127A0000093D0000093D0000093D0004000000A00F00000000D00702FF000000000000786A0010D8
:406C8000986A0010B86A0010000000000000000000000000000000002C6A0010000000000000000000000000000000000000000000000000000000000000000000000000EA
:406CC000000000000000000000000000000000000000000000000000E0000008DE6A0010E56B0010E56B0010E56B0010E56B0010E56B0010E56B0010E56B0010E56B001054
:406D0000E56B0010FFFFFFFFFFFFFFFFFFFFFFFFFFFF0000E9000010C1000010000000000004400B12D03E22094B1A60094A0A4B1A600A4B0621A322D2009950084A985080
:406D40009B58074B054AD358002BFADA7047C046040126401E1F000008012640000026401C05000010B54378FF2B0DD100F034F9064BDB685A68116801230B431360136826
:406D8000DB07FCD400F038F910BDC04680002340F0B583B006000F0000F026F90500032824D12B4B1B69002B22DB002000F00CF9284B98421ED00023274A0021012000F0F1
:406DC0003BF9002803D0254C17E0013400E00024002000F0F9F81F4B984202D0204B9C42F3D91F4B9C4207D91C4C06E0002404E01A4C02E0194C00E00024002C24D100F057
:406E0000EBF80190174A0121174800F005F900280ED1002E04D13800FFF782FF134C08E0114B1B69002BFBDB00F0EEF8040000E00A4C032D05D10121002000F0F5F80028D0
:406E4000F9D1019800F0D8F8200003B0F0BDC046C000234001018800DC00000805005200EF490200AC060008000023400100500070B5304B1B68002BFBDA2E4BD9680222D8
:406E80000A43DA60DB68DB071FD52A4EF2681204150C294B1A69120A1204FF2424042240110090241A59120A12060A432A43F2601969224A114090252D0129431961195961
:406EC0000A402A431A511A691B591A4B00225A605B681B4A116904230B431361012801D030BF00E020BF134B1B68002BFBDA114BDB68DB0715D510480269104B1A4014002D
:406F00000C4DEA68120C1202FF2109020A4022430261902142581340EA68120E120213434350044BDA6802218A43DA6000225A6070BDC046E000234000002140FF00FFFFBF
:406F400000ED00E0164A116904230B431361012801D030BF00E020BF124B1B68002BFBDA86235B00104AD358002B14D10F4A104B1A6006220F4B1A6038320F4B1A600632C0
:406F80000E4B1A600D4B1B68002BFBDA0C4986235B00054AD1500022024B5A607047C04600ED00E0E0002340000025401E1F00000801264018052640040126401C052640DE
:406FC000AAAAAAAA0000000001B40248844601BC604700BFBD0B001001B40248844601BC604700BF6B1A001001B40248844601BC604700BF5104001001B40248844601BCCD
:40700000604700BF731A001001B40248844601BC604700BF8D16001001B40248844601BC604700BF0D0A001001B40248844601BC604700BF310B001001B40248844601BCDD
:40704000604700BF990D00100000000000000000000000000000000000000000000000000000000000000000000000000000000000000000000000000000000000000000F4
:4070800000000000000000000000000000000000000000000000000000000000000000000000000000000000000000000000000000000000000000000000000000000000D0
:4070C0000000000000000000000000000000000000000000000000000000000000000000000000000000000000000000000000000000000000000000000000000000000090
:40710000000000000000000000000000000000000000000000000000000000000000000000000000000000000000000000000000000000000000000000000000000000004F
:40714000000000000000000000000000000000000000000000000000000000000000000000000000000000000000000000000000000000000000000000000000000000000F
:4071800000000000000000000000000000000000000000000000000000000000000000000000000000000000000000000000000000000000000000000000000000000000CF
:4071C000000000000000000000000000000000000000000000000000000000000000000000000000000000000000000000000000000000000000000000000000000000008F
:020000041008E2
